:020000040800F2
:1000000000000220454F00086148000867480008CA
:100010006D48000873480008794800080000000097
:100020000000000000000000000000007F48000801
:100030008D480008000000009B480008A9480008FF
:10004000954F0008954F0008954F0008954F000800
:10005000954F0008954F0008954F0008954F0008F0
:10006000954F0008954F0008954F0008954F0008E0
:10007000954F0008954F0008954F0008954F0008D0
:10008000954F0008954F0008954F0008954F0008C0
:10009000B5480008954F0008954F0008954F000897
:1000A000954F0008954F0008954F0008954F0008A0
:1000B000954F0008954F0008954F0008954F000890
:1000C000954F0008954F0008954F0008954F000880
:1000D000954F0008954F0008954F0008954F000870
:1000E000954F0008954F0008954F0008954F000860
:1000F000954F0008954F0008954F0008954F000850
:10010000954F0008954F0008954F0008954F00083F
:10011000954F0008954F0008954F0008954F00082F
:10012000954F0008954F0008954F0008954F00081F
:10013000954F0008954F0008954F0008954F00080F
:10014000954F0008954F0008954F0008954F0008FF
:10015000954F0008954F0008954F0008954F0008EF
:10016000954F0008954F0008954F0008954F0008DF
:10017000954F0008954F0008954F000800000000BB
:08018000954F0008954F00089F
:1001900010B5054C237833B9044B13B10448AFF3C1
:1001A00000800123237010BDE40100200000000046
:1001B000247D000808B5034B1BB103490348AFF386
:1001C000008008BD00000000E8010020247D000838
:1001D000034613F8012B002AFBD1181A0138704787
:1001E00001F0FF01102A2BDB10F0070F08D010F8E8
:1001F000013B013A8B422DD010F0070F42B3F6D1EC
:10020000F0B441EA012141EA014122F007047FF004
:1002100000070023F0E80256083C85EA010586EA5B
:10022000010685FA47F5A3FA87F586FA47F6A5FA97
:1002300087F68EB9EED1F0BC01F0FF0102F00702A3
:1002400032B110F8013B013A83EA010313B1F8D14E
:100250000020704701387047002D06BF354603382F
:10026000073815F0010F07D1013015F4807F02BF68
:10027000013015F4C03F0130F0BC0138704700BFB9
:1002800081F0004102E000BF83F0004330B54FEA47
:1002900041044FEA430594EA050F08BF90EA020FB4
:1002A0001FBF54EA000C55EA020C7FEA645C7FEA47
:1002B000655C00F0E2804FEA5454D4EB5555B8BF6A
:1002C0006D420CDD2C4480EA020281EA030382EADB
:1002D000000083EA010180EA020281EA0303362D6D
:1002E00088BF30BD11F0004F4FEA01314FF4801C40
:1002F0004CEA113102D0404261EB410113F0004F52
:100300004FEA03334CEA133302D0524263EB430308
:1003100094EA050F00F0A780A4F10104D5F1200EA6
:100320000DDB02FA0EFC22FA05F2801841F1000101
:1003300003FA0EF2801843FA05F359410EE0A5F1D5
:1003400020050EF1200E012A03FA0EFC28BF4CF006
:10035000020C43FA05F3C01851EBE37101F00045BC
:1003600007D54FF0000EDCF1000C7EEB00006EEBC9
:100370000101B1F5801F1BD3B1F5001F0CD3490853
:100380005FEA30004FEA3C0C04F101044FEA4452AA
:1003900012F5800F80F09A80BCF1004F08BF5FEA31
:1003A000500C50F1000041EB045141EA050130BD11
:1003B0005FEA4C0C404141EB0101013C28BFB1F523
:1003C000801FE9D291F0000F04BF01460020B1FA6E
:1003D00081F308BF2033A3F10B03B3F120020CDA41
:1003E0000C3208DD02F1140CC2F10C0201FA0CF01F
:1003F00021FA02F10CE002F11402D8BFC2F1200C84
:1004000001FA02F120FA0CFCDCBF41EA0C01904039
:10041000E41AA2BF01EB0451294330BD6FEA040482
:100420001F3C1CDA0C340EDC04F11404C4F120026D
:1004300020FA04F001FA02F340EA030021FA04F37F
:1004400045EA030130BDC4F10C04C4F1200220FAD6
:1004500002F001FA04F340EA0300294630BD21FA14
:1004600004F0294630BD94F0000F83F4801306BFDA
:1004700081F480110134013D4EE77FEA645C18BFCE
:100480007FEA655C29D094EA050F08BF90EA020F65
:1004900005D054EA000C04BF1946104630BD91EA5D
:1004A000030F1EBF0021002030BD5FEA545C05D160
:1004B0004000494128BF41F0004130BD14F580049F
:1004C0003CBF01F5801130BD01F0004545F0FE4113
:1004D00041F470014FF0000030BD7FEA645C1ABF48
:1004E000194610467FEA655C1CBF0B46024650EA7F
:1004F000013406BF52EA033591EA030F41F40021AB
:1005000030BD00BF90F0000F04BF0021704730B530
:100510004FF4806404F132044FF000054FF0000105
:1005200050E700BF90F0000F04BF0021704730B5C6
:100530004FF4806404F1320410F0004548BF40429B
:100540004FF000013EE700BF42004FEAE2014FEAF0
:1005500031014FEA02701FBF12F07F4393F07F4FCB
:1005600081F06051704732F07F4208BF704793F0CE
:100570007F4F04BF41F40021704730B54FF46074E1
:1005800001F0004521F000411CE700BF50EA0102E4
:1005900008BF704730B54FF000050AE050EA01028D
:1005A00008BF704730B511F0004502D5404261EBFD
:1005B00041014FF4806404F132045FEA915C3FF43E
:1005C000D8AE4FF003025FEADC0C18BF03325FEADB
:1005D000DC0C18BF033202EBDC02C2F1200300FA8C
:1005E00003FC20FA02F001FA03FE40EA0E0021FAB1
:1005F00002F11444BDE600BF70B54FF0FF0C4CF49F
:10060000E06C1CEA11541DBF1CEA135594EA0C0F50
:1006100095EA0C0F00F0DEF82C4481EA030621EA8B
:100620004C5123EA4C5350EA013518BF52EA0335C6
:1006300041F4801143F4801338D0A0FB02CE4FF078
:100640000005E1FB02E506F00042E0FB03E54FF0A8
:100650000006E1FB03569CF0000F18BF4EF0010EA0
:10066000A4F1FF04B6F5007F64F5407404D25FEA9C
:100670004E0E6D4146EB060642EAC62141EA55514F
:100680004FEAC52040EA5E504FEACE2EB4F1FD0C91
:1006900088BFBCF5E06F1ED8BEF1004F08BF5FEA0F
:1006A000500E50F1000041EB045170BD06F00046C1
:1006B00046EA010140EA020081EA0301B4EB5C046E
:1006C000C2BFD4EB0C0541EA045170BD41F4801166
:1006D0004FF0000E013C00F3AB8014F1360FDEBF8B
:1006E000002001F0004170BDC4F10004203C35DA67
:1006F0000C341BDC04F11404C4F1200500FA05F3EA
:1007000020FA04F001FA05F240EA020001F000428A
:1007100021F0004110EBD37021FA04F642EB060100
:100720005EEA430E08BF20EAD37070BDC4F10C042A
:10073000C4F1200500FA04F320FA05F001FA04F2EE
:1007400040EA020001F0004110EBD37041F10001DA
:100750005EEA430E08BF20EAD37070BDC4F12005E5
:1007600000FA05F24EEA020E20FA04F301FA05F24D
:1007700043EA020321FA04F001F0004121FA04F2F5
:1007800020EA020000EBD3705EEA430E08BF20EAC5
:10079000D37070BD94F0000F0FD101F000464000FF
:1007A00041EB010111F4801F08BF013CF7D041EA81
:1007B000060195F0000F18BF704703F00046520085
:1007C00043EB030313F4801F08BF013DF7D043EA56
:1007D0000603704794EA0C0F0CEA135518BF95EA0C
:1007E0000C0F0CD050EA410618BF52EA4306D1D193
:1007F00081EA030101F000414FF0000070BD50EAB2
:10080000410606BF1046194652EA430619D094EA3B
:100810000C0F02D150EA013613D195EA0C0F05D125
:1008200052EA03361CBF104619460AD181EA030179
:1008300001F0004141F0FE4141F470014FF0000031
:1008400070BD41F0FE4141F4780170BD70B54FF0CC
:10085000FF0C4CF4E06C1CEA11541DBF1CEA13554C
:1008600094EA0C0F95EA0C0F00F0A7F8A4EB05042E
:1008700081EA030E52EA03354FEA013100F0888025
:100880004FEA03334FF0805545EA131343EA1263EE
:100890004FEA022245EA111545EA10654FEA0026A3
:1008A0000EF000419D4208BF964244F1FD0404F55C
:1008B000407402D25B084FEA3202B61A65EB0305B8
:1008C0005B084FEA32024FF480104FF4002CB6EB75
:1008D000020E75EB030E22BFB61A754640EA0C00F5
:1008E0005B084FEA3202B6EB020E75EB030E22BF35
:1008F000B61A754640EA5C005B084FEA3202B6EB76
:10090000020E75EB030E22BFB61A754640EA9C0034
:100910005B084FEA3202B6EB020E75EB030E22BF04
:10092000B61A754640EADC0055EA060E18D04FEAC2
:10093000051545EA16754FEA06164FEAC30343EA62
:1009400052734FEAC2025FEA1C1CC0D111F4801F2F
:100950000BD141EA00014FF000004FF0004CB6E728
:1009600011F4801F04BF01430020B4F1FD0C88BFC7
:10097000BCF5E06F3FF6AFAEB5EB030C04BFB6EBD2
:10098000020C5FEA500C50F1000041EB045170BDC5
:100990000EF0004E4EEA113114EB5C04C2BFD4EBF2
:1009A0000C0541EA045170BD41F480114FF0000E76
:1009B000013C90E645EA060E8DE60CEA135594EAF2
:1009C0000C0F08BF95EA0C0F3FF43BAF94EA0C0FF5
:1009D0000AD150EA01347FF434AF95EA0C0F7FF46A
:1009E00025AF104619462CE795EA0C0F06D152EABE
:1009F00003353FF4FDAE1046194622E750EA4106A2
:100A000018BF52EA43067FF4C5AE50EA41047FF4B2
:100A10000DAF52EA43057FF4EBAE12E74FF0FF3C17
:100A200006E000BF4FF0010C02E000BF4FF0010CE8
:100A30004DF804CD4FEA410C7FEA6C5C4FEA430C61
:100A400018BF7FEA6C5C1BD001B050EA410C0CBFB0
:100A500052EA430C91EA030F02BF90EA020F002012
:100A6000704710F1000F91EA030F58BF994208BF79
:100A700090422CBFD8176FEAE37040F00100704736
:100A80004FEA410C7FEA6C5C02D150EA013C07D18D
:100A90004FEA430C7FEA6C5CD6D152EA033CD3D0D8
:100AA0005DF8040B704700BF8446104662468C46D2
:100AB0001946634600E000BF01B5FFF7B7FF002805
:100AC00048BF10F1000F01BD4DF808EDFFF7F4FF2E
:100AD0000CBF012000205DF808FB00BF4DF808EDB9
:100AE000FFF7EAFF34BF012000205DF808FB00BFDC
:100AF0004DF808EDFFF7E0FF94BF012000205DF8FE
:100B000008FB00BF4DF808EDFFF7CEFF94BF0120B2
:100B100000205DF808FB00BF4DF808EDFFF7C4FFAB
:100B200034BF012000205DF808FB00BF4FEA410CF4
:100B30007FEA6C5C02D150EA013C0AD14FEA430CD7
:100B40007FEA6C5C02D152EA033C02D14FF0000014
:100B500070474FF0010070474FEA410212F5001252
:100B600015D211D56FF47873B3EB625212D94FEAF4
:100B7000C12343F0004343EA505311F0004F23FADE
:100B800002F018BF404270474FF00000704750EA33
:100B9000013005D111F0004008BF6FF000407047F0
:100BA0004FF00000704700BF53B94AB9002908BF91
:100BB00000281CBF4FF0FF314FF0FF3000F06EB93E
:100BC000ADF1080C6DE904CE00F006F8DDF804E0A4
:100BD000DDE9022304B070472DE9F047089D044683
:100BE0008C46002B40F083808A42174647D9B2FAE0
:100BF00082F242B1C2F1200024FA00F09140974005
:100C000040EA010C94404FEA1748230CBCFBF8F66D
:100C10001FFA87FE08FB16C143EA014306FB0EF1EB
:100C2000994209D9FB1806F1FF3080F019819942E9
:100C300040F21681023E3B445B1AA4B2B3FBF8F0CB
:100C400008FB103344EA034400FB0EFEA64509D915
:100C50003C1900F1FF3380F00581A64540F2028186
:100C600002383C4440EA0640A4EB0E0400261DB1C5
:100C7000D4400023C5E900433146BDE8F08702B9FE
:100C8000FFDEB2FA82F2002A50D1CB1B4FEA174E98
:100C90001FFA87F80126B3FBFEFC210C0EFB1C3368
:100CA00041EA034108FB0CF38B4207D979180CF198
:100CB000FF3002D28B4200F2E9808446C91AA3B207
:100CC000B1FBFEF00EFB101143EA014408FB00F8F3
:100CD000A04507D93C1900F1FF3302D2A04500F22C
:100CE000D9801846A4EB080440EA0C40BFE78B42C9
:100CF00009D9002D00F0B1800026C5E90001304679
:100D00003146BDE8F087B3FA83F6002E4AD18B4214
:100D100002D3824200F2B880841A61EB0301012001
:100D20008C46002DA8D0C5E9004CA5E7C2F12003F0
:100D300020FA03F6974001FA02F04FEA174ED94025
:100D40003043030CB1FBFEF61FFA87F80EFB1611B9
:100D500043EA014306FB08F1994204FA02F409D977
:100D6000FB1806F1FF3C80F08D80994240F28A80AA
:100D7000023E3B445B1A81B2B3FBFEF00EFB103324
:100D800041EA034100FB08F38B4207D9791800F1CF
:100D9000FF3C73D28B4271D902383944CB1A40EAF6
:100DA000064678E7C6F1200C03FA06F422FA0CF3A3
:100DB0001C4320FA0CF701FA06F34FEA144E21FA0D
:100DC0000CF11F433B0CB1FBFEF91FFA84F80EFB3C
:100DD000191143EA014109FB08FA8A4502FA06F2B1
:100DE00000FA06F308D9611809F1FF3048D28A45A4
:100DF00046D9A9F102092144A1EB0A01BFB2B1FB16
:100E0000FEF00EFB101147EA014700FB08F8B84559
:100E100007D9E71900F1FF312ED2B8452CD9023895
:100E2000274440EA0940A7EB0807A0FB02894F4589
:100E3000C64649461AD317D05DB1B3EB0E0267EB35
:100E4000010707FA0CFCF2404CEA0202F740C5E940
:100E5000002700263146BDE8F0872E4628460BE7DE
:100E60000646E9E61846FDE64345E5D2B8EB020E34
:100E700069EB04010138DFE70846D2E760468DE7F9
:100E80008146B9E7664675E730464AE7ACF1020CA1
:100E9000394413E702383C4424E700BF704700BFE1
:100EA00080B500AF0E4B1B680D4A43F4007313600E
:100EB0000B4B1B680A4A43F480631360084B1B68A2
:100EC000074A43F480731360032001F039F90020CE
:100ED00000F008F803F05EFB0023184680BD00BF59
:100EE000003C024080B582B000AF7860124B1A68B7
:100EF000124B1B7819464FF47A73B3FBF1F3B2FB34
:100F0000F3F3184601F051F90346002B01D00123F9
:100F10000EE07B680F2B0AD8002279684FF0FF3073
:100F200001F019F9064A7B681360002300E00123F1
:100F300018460837BD4680BD0C0000200400002084
:100F40000000002080B400AF064B1B781A46064B09
:100F50001B681344044A136000BFBD465DF8047B60
:100F6000704700BF040000204002002080B400AFA2
:100F7000034B1B681846BD465DF8047B704700BFF5
:100F80004002002080B584B000AF7860FFF7EEFF2C
:100F9000B8607B68FB60FB68B3F1FF3F05D00A4B8C
:100FA0001B781A46FB681344FB6000BFFFF7DEFFA7
:100FB0000246BB68D31AFA689A42F7D800BF00BF4E
:100FC0001037BD4680BD00BF0400002080B584B04E
:100FD00000AF78600023FB737B68002B01D10123F5
:100FE00033E07B681B6C002B09D1786803F0FAFAB8
:100FF0007B6800225A647B68002283F83C207B686F
:101000001B6C03F01003002B18D17B681B6C23F4BE
:10101000885323F0020343F002027B681A64786865
:1010200000F03AF97B6800225A647B681B6C23F05D
:10103000030343F001027B681A6401E00123FB73A0
:101040007B68002283F83C20FB7B18461037BD46A6
:1010500080BD000080B485B000AF786039600023A7
:10106000BB607B6893F83C30012B01D1022305E182
:101070007B68012283F83C203B681B68092B25D93B
:101080007B681B68D9683B681B689BB21A4613468D
:101090005B0013441E3B072202FA03F3DA437B682A
:1010A0001B680A40DA607B681B68D9683B689A68ED
:1010B0003B681B689BB2184603465B0003441E3B1B
:1010C0009A407B681B680A43DA6022E07B681B68F1
:1010D00019693B681B689BB21A4613465B001344B0
:1010E000072202FA03F3DA437B681B680A401A619D
:1010F0007B681B6819693B689A683B681B689BB2F0
:10110000184603465B0003449A407B681B680A4309
:101110001A613B685B68062B24D87B681B68596B97
:101120003B685A6813469B001344053B1F2202FA92
:1011300003F3DA437B681B680A405A637B681B68C9
:10114000596B3B681B689BB218463B685A6813464C
:101150009B001344053B00FA03F27B681B680A43BB
:101160005A634CE03B685B680C2B24D87B681B6897
:10117000196B3B685A6813469B001344233B1F229C
:1011800002FA03F3DA437B681B680A401A637B6840
:101190001B68196B3B681B689BB218463B685A6812
:1011A00013469B001344233B00FA03F27B681B6841
:1011B0000A431A6323E07B681B68D96A3B685A6854
:1011C00013469B001344413B1F2202FA03F3DA4308
:1011D0007B681B680A40DA627B681B68D96A3B68D7
:1011E0001B689BB218463B685A6813469B00134421
:1011F000413B00FA03F27B681B680A43DA62224B28
:10120000FB607B681B68214A934209D13B681B68DD
:10121000122B05D1FB685B6843F48002FB685A60BF
:101220007B681B68194A934223D13B681B68102BCB
:1012300003D03B681B68112B1BD1FB685B6843F430
:101240000002FB685A603B681B68102B11D1104BE1
:101250001B68104AA2FB03239A0C13469B001344FD
:101260005B00BB6002E0BB68013BBB60BB68002B5E
:10127000F9D17B68002283F83C20002318461437FC
:10128000BD465DF8047B704700230140002001400B
:101290000C00002083DE1B4380B485B000AF786073
:1012A000794BFB60FB685B6823F44032FB685A6053
:1012B000FB685A687B685B681A43FB685A607B6806
:1012C0001B685A687B681B6822F480725A607B68CE
:1012D0001B6859687B681B691A027B681B680A4394
:1012E0005A607B681B685A687B681B6822F04072F2
:1012F0005A607B681B6859687B689A687B681B68C2
:101300000A435A607B681B689A687B681B6822F4F2
:1013100000629A607B681B6899687B68DA687B6802
:101320001B680A439A607B689B6A584A934222D0A2
:101330007B681B689A687B681B6822F070629A6001
:101340007B681B6899687B689A6A7B681B680A439C
:101350009A607B681B689A687B681B6822F0405221
:101360009A607B681B6899687B68DA6A7B681B688F
:101370000A439A600FE07B681B689A687B681B6869
:1013800022F070629A607B681B689A687B681B68B1
:1013900022F040529A607B681B689A687B681B68E1
:1013A00022F002029A607B681B6899687B681B7E4A
:1013B0005A007B681B680A439A607B6893F8203068
:1013C000002B1BD07B681B685A687B681B6842F443
:1013D00000625A607B681B685A687B681B6822F44D
:1013E00060425A607B681B6859687B685B6A013B96
:1013F0005A037B681B680A435A6007E07B681B68D6
:101400005A687B681B6822F400625A607B681B681C
:10141000DA6A7B681B6822F47002DA627B681B68F8
:10142000D96A7B68DB69013B1A057B681B680A4344
:10143000DA627B681B689A687B681B6822F400721A
:101440009A607B681B6899687B6893F830305A0211
:101450007B681B680A439A607B681B689A687B6894
:101460001B6822F480629A607B681B6899687B68BD
:101470005B699A027B681B680A439A6000BF143755
:10148000BD465DF8047B7047002301400100000F5A
:1014900080B584B000AF78607B68002B01D1012358
:1014A000EDE07B6893F82030DBB2002B02D1786846
:1014B00003F0DCF87B681B681A687B681B6822F005
:1014C00002021A60FFF752FDF86012E0FFF74EFDCE
:1014D0000246FB68D31A0A2B0BD97B685B6A43F47C
:1014E00000327B685A627B68052283F82020012342
:1014F000C5E07B681B685B6803F00203002BE5D145
:101500007B681B681A687B681B6842F001021A60DE
:10151000FFF72CFDF86012E0FFF728FD0246FB689C
:10152000D31A0A2B0BD97B685B6A43F400327B68C1
:101530005A627B68052283F8202001239FE07B68A4
:101540001B685B6803F00103002BE5D07B681B7E02
:10155000012B08D17B681B681A687B681B6842F006
:1015600080021A6007E07B681B681A687B681B684A
:1015700022F080021A607B685B7E012B08D17B68B9
:101580001B681A687B681B6842F040021A6007E01B
:101590007B681B681A687B681B6822F040021A602F
:1015A0007B689B7E012B08D17B681B681A687B686F
:1015B0001B6842F020021A6007E07B681B681A680B
:1015C0007B681B6822F020021A607B68DB7E012B9F
:1015D00008D17B681B681A687B681B6822F01002C0
:1015E0001A6007E07B681B681A687B681B6842F01A
:1015F00010021A607B681B7F012B08D17B681B6877
:101600001A687B681B6842F008021A6007E07B6872
:101610001B681A687B681B6822F008021A607B68E6
:101620005B7F012B08D17B681B681A687B681B688D
:1016300042F004021A6007E07B681B681A687B6846
:101640001B6822F004021A607B689A687B68DB687A
:101650001A437B681B691A437B685B6942EA030192
:101660007B685B685A1E7B681B680A43DA617B688B
:1016700000225A627B68012283F82020002318464A
:101680001037BD4680BD000080B487B000AF7860E1
:1016900039607B681B687B617B6893F82030FB7442
:1016A000FB7C012B03D0FB7C022B40F0BE80654B02
:1016B0007B617B69D3F8003243F001027B69C3F898
:1016C00000227B69D3F8003223F47C527B69C3F893
:1016D00000227B69D3F800223B685B6A1B021A4335
:1016E0007B69C3F800223B685B6903F01F0301229A
:1016F00002FA03F3FB607B69D3F81C22FB68DB432F
:101700001A407B69C3F81C223B68DB69002B23D19C
:101710007B69D3F80C22FB68DB431A407B69C3F872
:101720000C223B68DB6819043B685B689BB23A6833
:10173000526919437B69483243F832103B689B6811
:1017400019043B681B689AB23B685B690A43796974
:101750004833DB000B445A603B68DB69012B22D124
:101760007B69D3F80C22FB681A437B69C3F80C220F
:101770003B681B6819043B685B689BB23A68526916
:1017800019437B69483243F832103B689B6819045F
:101790003B68DB689AB23B685B690A437969483306
:1017A000DB000B445A603B689B69002B09D17B69C5
:1017B000D3F80422FB68DB431A407B69C3F8042298
:1017C00007E07B69D3F80422FB681A437B69C3F8FE
:1017D00004223B681B69002B09D17B69D3F81422D2
:1017E000FB68DB431A407B69C3F8142207E07B697E
:1017F000D3F81422FB681A437B69C3F814223B68B0
:101800001B6A012B07D17B69D3F81C22FB681A43A2
:101810007B69C3F81C227B69D3F8003223F00102F4
:101820007B69C3F80022002306E07B685B6A43F40F
:1018300080227B685A62012318461C37BD465DF83A
:10184000047B70470064004080B584B000AF7860CE
:101850007B6893F82030DBB2012B2ED17B6802220B
:1018600083F820207B681B681A687B681B6822F05D
:1018700001021A60FFF77AFBF86012E0FFF776FBCF
:101880000246FB68D31A0A2B0BD97B685B6A43F4C8
:1018900000327B685A627B68052283F8202001238E
:1018A00012E07B681B685B6803F00103002BE5D145
:1018B0007B6800225A62002306E07B685B6A43F47F
:1018C00000227B685A62012318461037BD4680BD4E
:1018D00080B487B000AFF860B9607A603B60FB68A5
:1018E00093F82030FB75FB7D012B03D0FB7D022B91
:1018F00040F0F380BB68002B0ED1FB681B68DB68EF
:1019000003F00303002B16D1FB685B6A43F400125B
:10191000FB685A620123E7E0FB681B681B6903F060
:101920000303002B07D1FB685B6A43F40012FB68DA
:101930005A620123D8E0FB681A68BB681B331B019D
:1019400013441B6803F004027B689A607B689B6801
:10195000002B0CD1FB681A68BB681B331B011344B6
:101960001B685B0DC3F30A027B681A600BE0FB681F
:101970001A68BB681B331B0113441B68DB0823F088
:1019800060427B685A60FB681A68BB681B331B01A6
:1019900013441B6803F002027B68DA60FB681A6874
:1019A000BB681B331B01134404331B6803F00F0295
:1019B0007B681A61FB681A68BB681B331B01134400
:1019C00004331B681B0ADAB27B689A61FB681A68E9
:1019D000BB681B331B01134404331B681B0C9AB2F6
:1019E0007B685A61FB681A68BB681B01134403F5E6
:1019F000DC731B68DAB23B681A70FB681A68BB6854
:101A00001B01134403F5DC731B681A0A3B6801339E
:101A1000D2B21A70FB681A68BB681B01134403F545
:101A2000DC731B681A0C3B680233D2B21A70FB6875
:101A30001A68BB681B01134403F5DC731B681A0E9C
:101A40003B680333D2B21A70FB681A68BB681B018B
:101A5000134403F5DE731A683B680433D2B21A707C
:101A6000FB681A68BB681B01134403F5DE731B682F
:101A70001A0A3B680533D2B21A70FB681A68BB6851
:101A80001B01134403F5DE731B681A0C3B68063315
:101A9000D2B21A70FB681A68BB681B01134403F5C5
:101AA000DE731B681A0E3B680733D2B21A70BB682C
:101AB000002B08D1FB681B68DA68FB681B6842F0E2
:101AC0002002DA6007E0FB681B681A69FB681B6884
:101AD00042F020021A61002306E0FB685B6A43F4CF
:101AE0008022FB685A62012318461C37BD465DF808
:101AF000047B704780B485B000AF786039607B6844
:101B000093F82030FB73FB7B012B02D0FB7B022B75
:101B100009D17B681B6859697B681B683A680A436E
:101B20005A61002306E07B685B6A43F480227B688D
:101B30005A62012318461437BD465DF8047B70478E
:101B400080B58AB000AF786000237B627B681B6839
:101B50005B693B627B681B685B68FB617B681B6839
:101B60009B68BB617B681B68DB687B617B681B686B
:101B70001B693B617B681B689B69FB603B6A03F0E8
:101B80000103002B7CD0BB6903F00103002B23D0A1
:101B90007B681B6801229A60BB6903F00203002B7B
:101BA00003D0786800F083F916E0BB6903F0040302
:101BB000002B04D07B6A43F400637B620CE0BB69BA
:101BC00003F00803002B04D07B6A43F480537B624C
:101BD00002E0786800F089F9BB6903F48073002B98
:101BE00024D07B681B684FF480729A60BB6903F451
:101BF0000073002B03D0786800F063F916E0BB692E
:101C000003F48063002B04D07B6A43F400537B62AF
:101C10000CE0BB6903F40063002B04D07B6A43F43F
:101C200080437B6202E0786800F069F9BB6903F4E5
:101C30008033002B24D07B681B684FF480329A607D
:101C4000BB6903F40033002B03D0786800F043F93C
:101C500016E0BB6903F48023002B04D07B6A43F4B5
:101C600000437B620CE0BB6903F40023002B04D02B
:101C70007B6A43F480337B6202E0786800F049F9C4
:101C80003B6A03F00803002B0CD07B6903F01003C0
:101C9000002B07D07B6A43F400737B627B681B6870
:101CA0001022DA603B6A03F00403002B0BD07B693F
:101CB00003F00803002B06D07B681B680822DA605B
:101CC000786800F030F93B6A03F00203002B09D07A
:101CD0007B681B68DB6803F00303002B02D0786885
:101CE00001F038FE3B6A03F04003002B0CD03B6947
:101CF00003F01003002B07D07B6A43F480637B6200
:101D00007B681B6810221A613B6A03F02003002BDA
:101D10000BD03B6903F00803002B06D07B681B68DF
:101D200008221A61786800F012F93B6A03F0100388
:101D3000002B09D07B681B681B6903F00303002B91
:101D400002D0786800F0F9F83B6A03F40033002B06
:101D50000BD0FB6903F01003002B06D07B681B68D7
:101D600010225A60786800F0FCF83B6A03F4803374
:101D7000002B0BD0FB6903F00803002B06D07B6817
:101D80001B6808225A60786800F0F5F83B6A03F493
:101D90000043002B7BD0FB6903F00403002B72D0BF
:101DA0003B6A03F48073002B08D0FB6803F0010347
:101DB000002B03D07B6A43F001037B623B6A03F490
:101DC0000073002B08D0FB6803F00203002B03D044
:101DD0007B6A43F002037B623B6A03F48063002B5F
:101DE00008D0FB6803F00403002B03D07B6A43F0A8
:101DF00004037B623B6A03F40063002B43D0FB685F
:101E000003F07003002B3ED0FB6803F07003602BDF
:101E10002BD0602B2ED8502B22D0502B2AD8402BE1
:101E200019D0402B26D8302B10D0302B22D8102B95
:101E300002D0202B05D01DE07B6A43F008037B62B3
:101E400019E07B6A43F010037B6214E07B6A43F085
:101E500020037B620FE07B6A43F040037B620AE071
:101E60007B6A43F080037B6205E07B6A43F4807306
:101E70007B6200E000BF7B681B689A697B681B6817
:101E800022F070029A617B681B6804225A607B6AA8
:101E9000002B08D07B685A6A7B6A1A437B685A62B7
:101EA000786800F072F800BF2837BD4680BD80B466
:101EB00083B000AF786000BF0C37BD465DF8047B8F
:101EC000704780B483B000AF786000BF0C37BD4668
:101ED0005DF8047B704780B483B000AF786000BFCA
:101EE0000C37BD465DF8047B704780B483B000AF0B
:101EF000786000BF0C37BD465DF8047B704780B446
:101F000083B000AF786000BF0C37BD465DF8047B3E
:101F1000704780B483B000AF786000BF0C37BD4617
:101F20005DF8047B704780B483B000AF786000BF79
:101F30000C37BD465DF8047B704780B483B000AFBA
:101F4000786000BF0C37BD465DF8047B704780B4F5
:101F500083B000AF786000BF0C37BD465DF8047BEE
:101F6000704780B483B000AF786000BF0C37BD46C7
:101F70005DF8047B704780B483B000AF786000BF29
:101F80000C37BD465DF8047B704780B483B000AF6A
:101F9000786000BF0C37BD465DF8047B70470000D9
:101FA00080B485B000AF78607B6803F00703FB6006
:101FB0000C4BDB68BB60BA684FF6FF031340BB6095
:101FC000FB681A02BB68134343F0BF6343F400335A
:101FD000BB60044ABB68D36000BF1437BD465DF8E0
:101FE000047B704700ED00E080B400AF044BDB6879
:101FF0001B0A03F007031846BD465DF8047B7047D3
:1020000000ED00E080B483B000AF0346FB7197F9A8
:102010000730002B0BDBFB7903F01F02074997F910
:1020200007305B09012000FA02F241F8232000BFCB
:102030000C37BD465DF8047B704700BF00E100E04F
:1020400080B483B000AF03463960FB7197F9073065
:10205000002B0ADB3B68DAB20C4997F90730120112
:10206000D2B20B4483F800230AE03B68DAB2084995
:10207000FB7903F00F03043B1201D2B20B441A7632
:1020800000BF0C37BD465DF8047B704700E100E0FF
:1020900000ED00E080B489B000AFF860B9607A600C
:1020A000FB6803F00703FB61FB69C3F10703042B23
:1020B00028BF0423BB61FB690433062B02D9FB69EB
:1020C000033B00E000237B614FF0FF32BB6902FA63
:1020D00003F3DA43BB681A407B699A404FF0FF3143
:1020E0007B6901FA03F3D9437B680B40134318461D
:1020F0002437BD465DF8047B7047000080B582B090
:1021000000AF78607B68013BB3F1807F01D301238E
:102110000FE00A4A7B68013B53600F214FF0FF300C
:10212000FFF78EFF054B00229A60044B07221A60CE
:10213000002318460837BD4680BD00BF10E000E010
:1021400080B582B000AF78607868FFF729FF00BFE4
:102150000837BD4680BD80B586B000AF0346B96084
:102160007A60FB7300237B61FFF73EFF78617A683A
:10217000B9687869FFF78EFF024697F90F3011466C
:102180001846FFF75DFF00BF1837BD4680BD80B51C
:1021900082B000AF0346FB7197F907301846FFF78E
:1021A00031FF00BF0837BD4680BD80B582B000AFAB
:1021B00078607868FFF7A2FF034618460837BD46E7
:1021C00080BD000080B489B000AF78603960002322
:1021D0007B6100233B610023BB610023FB616BE15A
:1021E0000122FB6902FA03F37B613B681B687A6991
:1021F00013403B613A697B699A4240F05A813B68DF
:102200005B68012B0BD03B685B68022B07D03B68F7
:102210005B68112B03D03B685B68122B30D17B6865
:102220009B68BB61FB695B00032202FA03F3DB439B
:10223000BA691340BB613B68DA68FB695B0002FA6C
:1022400003F3BA691343BB617B68BA699A607B6820
:102250005B68BB610122FB6902FA03F3DB43BA69E5
:102260001340BB613B685B681B0903F00102FB691B
:1022700002FA03F3BA691343BB617B68BA695A6017
:102280007B68DB68BB61FB695B00032202FA03F336
:10229000DB43BA691340BB613B689A68FB695B002A
:1022A00002FA03F3BA691343BB617B68BA69DA6067
:1022B0003B685B68022B03D03B685B68122B23D121
:1022C000FB69DA087B68083253F82230BB61FB698E
:1022D00003F007039B000F2202FA03F3DB43BA6902
:1022E0001340BB613B681A69FB6903F007039B005D
:1022F00002FA03F3BA691343BB61FB69DA087B682E
:102300000832B96943F822107B681B68BB61FB691E
:102310005B00032202FA03F3DB43BA691340BB619B
:102320003B685B6803F00302FB695B0002FA03F39E
:10233000BA691343BB617B68BA691A603B685B6822
:1023400003F08053002B00F0B4800023FB60604B4F
:102350005B6C5F4A43F4804353645D4B5B6C03F4F6
:102360008043FB60FB685B4AFB699B08023352F8C1
:102370002330BB61FB6903F003039B000F2202FAC9
:1023800003F3DB43BA691340BB617B68524A934253
:102390002BD07B68514A934225D07B68504A9342A8
:1023A0001FD07B684F4A934219D07B684E4A9342B4
:1023B00013D07B684D4A93420DD07B684C4A9342C0
:1023C00007D07B684B4A934201D107230EE00823D4
:1023D0000CE006230AE0052308E0042306E00323BB
:1023E00004E0022302E0012300E00023FA6902F086
:1023F000030292009340BA691343BB613549FB69FC
:102400009B080233BA6941F823203B4B1B68BB6130
:102410003B69DB43BA691340BB613B685B6803F40B
:102420008033002B03D0BA693B691343BB61324A46
:10243000BB691360304B5B68BB613B69DB43BA69C6
:102440001340BB613B685B6803F40033002B03D08F
:10245000BA693B691343BB61274ABB695360264B8A
:102460009B68BB613B69DB43BA691340BB613B6856
:102470005B6803F48013002B03D0BA693B691343F4
:10248000BB611D4ABB6993601B4BDB68BB613B6949
:10249000DB43BA691340BB613B685B6803F400131C
:1024A000002B03D0BA693B691343BB61124ABB6975
:1024B000D360FB690133FB61FB690F2B7FF690AEA4
:1024C00000BF00BF2437BD465DF8047B704700BFE6
:1024D0000038024000380140000002400004024081
:1024E00000080240000C02400010024000140240AC
:1024F00000180240001C0240003C014080B483B040
:1025000000AF78600B467B8013467B707B78002B96
:1025100003D07A887B689A6103E07B881A047B6821
:102520009A6100BF0C37BD465DF8047B704780B4EC
:1025300083B000AF78600B467B807B685A697B88EC
:102540001A407B889A4204D17B881A047B689A617E
:1025500002E07A887B689A6100BF0C37BD465DF85F
:10256000047B704780B586B000AF78607B68002B35
:1025700001D101235BE27B681B6803F00103002BA0
:1025800075D0A34B9B6803F00C03042B0CD0A04B1D
:102590009B6803F00C03082B12D19D4B5B6803F47E
:1025A0008003B3F5800F0BD1994B1B6803F4003304
:1025B000002B5BD07B685B68002B57D1012336E290
:1025C0007B685B68B3F5803F06D1914B1B68904AEE
:1025D00043F4803313601DE07B685B68B3F5A02F84
:1025E0000CD18B4B1B688A4A43F480231360884BC1
:1025F0001B68874A43F4803313600BE0844B1B68ED
:10260000834A23F480331360814B1B68804A23F490
:10261000802313607B685B68002B13D0FEF7A6FC59
:10262000386108E0FEF7A2FC02463B69D31A642B2E
:1026300001D90323FBE1764B1B6803F40033002B25
:10264000F0D014E0FEF792FC386108E0FEF78EFC53
:1026500002463B69D31A642B01D90323E7E16C4B93
:102660001B6803F40033002BF0D100E000BF7B684F
:102670001B6803F00203002B63D0654B9B6803F0DB
:102680000C03002B0BD0624B9B6803F00C03082B50
:102690001CD15F4B5B6803F48003002B16D15C4BAD
:1026A0001B6803F00203002B05D07B68DB68012B5D
:1026B00001D00123BBE1564B1B6823F0F8027B6875
:1026C0001B69DB00524913430B603AE07B68DB680F
:1026D000002B20D04F4B01221A60FEF747FC3861D7
:1026E00008E0FEF743FC02463B69D31A022B01D9EE
:1026F00003239CE1464B1B6803F00203002BF0D040
:10270000434B1B6823F0F8027B681B69DB004049E0
:1027100013430B6015E03F4B00221A60FEF726FCC6
:10272000386108E0FEF722FC02463B69D31A022B0F
:1027300001D903237BE1364B1B6803F00203002B16
:10274000F0D17B681B6803F00803002B30D07B6856
:102750005B69002B16D0304B01221A60FEF706FC95
:10276000386108E0FEF702FC02463B69D31A022BEF
:1027700001D903235BE1264B5B6F03F00203002BBF
:10278000F0D015E0244B00221A60FEF7EFFB386111
:1027900008E0FEF7EBFB02463B69D31A022B01D996
:1027A000032344E11A4B5B6F03F00203002BF0D1CB
:1027B0007B681B6803F00403002B00F0A08000235B
:1027C000FB75134B1B6C03F08053002B0FD10023C0
:1027D000BB600F4B1B6C0E4A43F0805313640C4BD1
:1027E0001B6C03F08053BB60BB680123FB750B4B74
:1027F0001B6803F48073002B21D1084B1B68074A28
:1028000043F480731360FEF7B1FB386111E000BF41
:102810000038024000004742800E474200700040EE
:10282000FEF7A4FB02463B69D31A022B01D903230E
:10283000FDE0814B1B6803F48073002BF0D07B68B4
:102840009B68012B06D17D4B1B6F7C4A43F0010333
:1028500013671CE07B689B68052B0CD1774B1B6FC3
:10286000764A43F004031367744B1B6F734A43F0BB
:10287000010313670BE0714B1B6F704A23F00103D8
:1028800013676E4B1B6F6D4A23F0040313677B685D
:102890009B68002B15D0FEF769FB38610AE0FEF754
:1028A00065FB02463B69D31A41F28832934201D953
:1028B0000323BCE0614B1B6F03F00203002BEED03F
:1028C00014E0FEF753FB38610AE0FEF74FFB0246C7
:1028D0003B69D31A41F28832934201D90323A6E01F
:1028E000564B1B6F03F00203002BEED1FB7D012B37
:1028F00005D1524B1B6C514A23F0805313647B6803
:102900009B69002B00F092804C4B9B6803F00C03FA
:10291000082B5CD07B689B69022B41D1484B00227D
:102920001A60FEF723FB386108E0FEF71FFB024642
:102930003B69D31A022B01D9032378E03F4B1B6874
:1029400003F00073002BF0D17B68DA697B681B6AA7
:102950001A437B685B6A9B011A437B689B6A5B082E
:10296000013B1B041A437B68DB6A1B063349134394
:102970004B60334B01221A60FEF7F8FA386108E029
:10298000FEF7F4FA02463B69D31A022B01D903235E
:102990004DE02A4B1B6803F00073002BF0D045E09C
:1029A000274B00221A60FEF7E1FA386108E0FEF7D3
:1029B000DDFA02463B69D31A022B01D9032336E024
:1029C0001E4B1B6803F00073002BF0D12EE07B68D8
:1029D0009B69012B01D1012329E0184B5B68FB6047
:1029E000FB6803F480027B68DB699A421CD1FB68B8
:1029F00003F03F027B681B6A9A4215D1FA6847F6DA
:102A0000C07313407A68526A93420DD1FB6803F495
:102A100040327B689B6A9A4206D1FB6803F0706281
:102A20007B68DB6A9A4201D0012300E0002318464C
:102A30001837BD4680BD00BF00700040003802401E
:102A40006000474280B584B000AF786039607B6831
:102A5000002B01D10123CCE0684B1B6803F00F036E
:102A60003A689A420CD9654B3A68D2B21A70634BF5
:102A70001B6803F00F033A689A4201D00123B8E0C3
:102A80007B681B6803F00203002B20D07B681B6867
:102A900003F00403002B05D0594B9B68584A43F4BC
:102AA000E05393607B681B6803F00803002B05D09C
:102AB000534B9B68524A43F460439360504B9B686E
:102AC00023F0F0027B689B684D4913438B607B6861
:102AD0001B6803F00103002B44D07B685B68012B6B
:102AE00007D1474B1B6803F40033002B19D1012396
:102AF0007FE07B685B68022B03D07B685B68032BFD
:102B000007D13F4B1B6803F00073002B09D1012351
:102B10006FE03B4B1B6803F00203002B01D1012344
:102B200067E0374B9B6823F003027B685B6834499E
:102B300013438B60FEF71AFAF8600AE0FEF716FA04
:102B40000246FB68D31A41F28832934201D903232B
:102B50004FE02B4B9B6803F00C027B685B689B008B
:102B60009A42EBD1254B1B6803F00F033A689A4257
:102B70000CD2224B3A68D2B21A70204B1B6803F079
:102B80000F033A689A4201D0012332E07B681B6848
:102B900003F00403002B08D0194B9B6823F4E05288
:102BA0007B68DB68164913438B607B681B6803F006
:102BB0000803002B09D0124B9B6823F460427B680A
:102BC0001B69DB000E4913438B6000F021F80246BD
:102BD0000B4B9B681B0903F00F030A49CB5C22FADD
:102BE00003F3094A1360094B1B681846FEF77AF98C
:102BF000002318461037BD4680BD00BF003C024090
:102C000000380240947D00080C00002000000020E5
:102C10002DE9B04384B000AF00237B600023FB604C
:102C200000233B600023BB60674B9B6803F00C03F1
:102C3000082B0DD0082B00F2BD80002B02D0042BF6
:102C400003D0B7E0614BBB60B7E0614BBB60B4E061
:102C50005D4B5B6803F03F037B605B4B5B6803F499
:102C60008003002B4DD0584B5B689B091A464FF0F0
:102C7000000340F2FF104FF0000102EA000803EAEF
:102C80000109404649464FF000024FF000034B0156
:102C900043EAD063420110461946B0EB080061EBED
:102CA00009014FF000024FF000038B0143EA9063EB
:102CB0008201121A63EB01034FF000004FF0000194
:102CC000D90041EA5271D00002460B4612EB0802CD
:102CD00043EB09034FF000004FF00001590241EAB5
:102CE000D251500202460B46104619467B681A46DE
:102CF0004FF00003FDF758FF02460B461346FB60FA
:102D00004AE0314B5B689B091A464FF0000340F2E2
:102D1000FF104FF0000102EA000403EA010520461B
:102D200029464FF000024FF000034B0143EAD06305
:102D3000420110461946001B61EB05014FF00002ED
:102D40004FF000038B0143EA90638201121A63EB98
:102D500001034FF000004FF00001D90041EA527129
:102D6000D00002460B46121945EB03034FF000005A
:102D70004FF00001990241EA9251900202460B463F
:102D8000104619467B681A464FF00003FDF70CFF0A
:102D900002460B461346FB600B4B5B681B0C03F0B3
:102DA000030301335B003B60FA683B68B2FBF3F35B
:102DB000BB6002E0054BBB6000BFBB681846103724
:102DC000BD46BDE8B08300BF003802400024F400D7
:102DD00000127A0080B400AF034B1B681846BD4652
:102DE0005DF8047B704700BF0C00002080B582B006
:102DF00000AF78607B68002B01D101231DE07B6868
:102E000093F83D30DBB2002B06D17B68002283F8BB
:102E10003C20786801F07AFC7B68022283F83D2030
:102E20007B681A687B6804331946104600F006FA7E
:102E30007B68012283F83D20002318460837BD46F1
:102E400080BD80B582B000AF78607B68002B01D177
:102E500001231DE07B6893F83D30DBB2002B06D1E7
:102E60007B68002283F83C20786800F015F87B68C6
:102E7000022283F83D207B681A687B680433194678
:102E8000104600F0DBF97B68012283F83D20002327
:102E900018460837BD4680BD80B483B000AF786067
:102EA00000BF0C37BD465DF8047B704780B584B029
:102EB00000AF786039607B681B680122396818466A
:102EC00000F0A6FC7B681B68154A934204D07B681F
:102ED0001B68144A934201D1012300E00023002B18
:102EE00007D07B681B685A6C7B681B6842F4004201
:102EF0005A647B681B689B6803F00703FB60FB68F0
:102F0000062B07D07B681B681A687B681B6842F039
:102F100001021A60002318461037BD4680BD00BF6D
:102F2000000001400004014080B584B000AFF860AB
:102F3000B9607A60FB6893F83C30012B01D1022321
:102F4000B4E0FB68012283F83C20FB68022283F88E
:102F50003D207B680C2B00F29F8001A252F823F0E9
:102F6000952F000899300008993000089930000822
:102F7000D52F0008993000089930000899300008D2
:102F8000173000089930000899300008993000087F
:102F900057300008FB681B68B968184600F0EEF966
:102FA000FB681B689A69FB681B6842F008029A611B
:102FB000FB681B689A69FB681B6822F004029A612F
:102FC000FB681B689969BB681A69FB681B680A4340
:102FD0009A6162E0FB681B68B968184600F03EFA27
:102FE000FB681B689A69FB681B6842F400629A617F
:102FF000FB681B689A69FB681B6822F480629A610F
:10300000FB681B689969BB681B691A02FB681B682F
:103010000A439A6141E0FB681B68B968184600F0F2
:1030200093FAFB681B68DA69FB681B6842F00802C8
:10303000DA61FB681B68DA69FB681B6822F004022E
:10304000DA61FB681B68D969BB681A69FB681B6891
:103050000A43DA6121E0FB681B68B968184600F092
:10306000E7FAFB681B68DA69FB681B6842F40062D8
:10307000DA61FB681B68DA69FB681B6822F480620E
:10308000DA61FB681B68D969BB681B691A02FB68B7
:103090001B680A43DA6100E000BFFB68012283F885
:1030A0003D20FB68002283F83C200023184610379F
:1030B000BD4680BD80B584B000AF786039607B6864
:1030C00093F83C30012B01D10223B3E07B6801224D
:1030D00083F83C207B68022283F83D207B681B68D4
:1030E0009B68FB60FB6823F07703FB60FB6823F4BD
:1030F0007F43FB607B681B68FA689A603B681B68CB
:10310000B3F5005F3ED0B3F5005F00F28780B3F502
:10311000805F00F08580B3F5805F7FD8702B1AD078
:10312000702B7BD8602B50D0602B77D8502B3CD0A5
:10313000502B73D8402B58D0402B6FD8302B64D0F5
:10314000302B6BD8202B60D0202B67D8002B5CD085
:10315000102B5AD062E07B6818683B6899683B681E
:103160005A683B68DB6800F033FB7B681B689B6830
:10317000FB60FB6843F07703FB607B681B68FA68C1
:103180009A604EE07B6818683B6899683B685A68AB
:103190003B68DB6800F01CFB7B681B689A687B68F7
:1031A0001B6842F480429A603BE07B6818683B6889
:1031B00059683B68DB681A4600F090FA7B681B6828
:1031C0005021184600F0E9FA2BE07B6818683B684C
:1031D00059683B68DB681A4600F0AFFA7B681B68E9
:1031E0006021184600F0D9FA1BE07B6818683B683C
:1031F00059683B68DB681A4600F070FA7B681B6808
:103200004021184600F0C9FA0BE07B681A683B6859
:103210001B681946104600F0C0FA02E000BF00E04B
:1032200000BF7B68012283F83D207B68002283F881
:103230003C20002318461037BD4680BD80B485B0C1
:1032400000AF786039607B681B68FB607B68404A30
:10325000934213D07B68B3F1804F0FD07B683D4A17
:1032600093420BD07B683C4A934207D07B683B4A31
:10327000934203D07B683A4A934208D1FB6823F01B
:103280007003FB603B685B68FA681343FB607B6814
:103290002F4A93422BD07B68B3F1804F27D07B68B5
:1032A0002C4A934223D07B682B4A93421FD07B68E1
:1032B0002A4A93421BD07B68294A934217D07B68E5
:1032C000284A934213D07B68274A93420FD07B68E9
:1032D000264A93420BD07B68254A934207D07B68ED
:1032E000244A934203D07B68234A934208D1FB6867
:1032F00023F44073FB603B68DB68FA681343FB60B0
:10330000FB6823F080023B685B691343FB607B68CA
:10331000FA681A603B689A687B68DA623B681A68E8
:103320007B689A627B680A4A934203D07B680C4AA6
:10333000934203D13B681A697B681A637B68012258
:103340005A6100BF1437BD465DF8047B704700BF6B
:10335000000001400004004000080040000C004054
:103360000004014000400140004401400048014089
:1033700000180040001C00400020004080B487B0CE
:1033800000AF786039607B681B6A23F001027B68BC
:103390001A627B681B6A7B617B685B683B617B6848
:1033A0009B69FB60FB6823F07003FB60FB6823F004
:1033B0000303FB603B681B68FA681343FB607B698F
:1033C00023F002037B613B689B687A6913437B614E
:1033D0007B68204A934203D07B681F4A93420CD1FA
:1033E0007B6923F008037B613B68DB687A691343E0
:1033F0007B617B6923F004037B617B68154A934200
:1034000003D07B68144A934211D13B6923F4807343
:103410003B613B6923F400733B613B685B693A693C
:1034200013433B613B689B693A6913433B617B688B
:103430003A695A607B68FA689A613B685A687B68A7
:103440005A637B687A691A6200BF1C37BD465DF813
:10345000047B7047000001400004014080B487B045
:1034600000AF786039607B681B6A23F010027B68CC
:103470001A627B681B6A7B617B685B683B617B6867
:103480009B69FB60FB6823F4E043FB60FB6823F46B
:103490004073FB603B681B681B02FA681343FB60C8
:1034A0007B6923F020037B613B689B681B017A6981
:1034B00013437B617B68224A934203D07B68214A95
:1034C00093420DD17B6923F080037B613B68DB680D
:1034D0001B017A6913437B617B6923F040037B61A5
:1034E0007B68174A934203D07B68164A934213D1F4
:1034F0003B6923F480633B613B6923F400633B61D8
:103500003B685B699B003A6913433B613B689B697D
:103510009B003A6913433B617B683A695A607B6858
:10352000FA689A613B685A687B689A637B687A6933
:103530001A6200BF1C37BD465DF8047B704700BFB0
:10354000000001400004014080B487B000AF786003
:1035500039607B681B6A23F480727B681A627B681F
:103560001B6A7B617B685B683B617B68DB69FB6036
:10357000FB6823F07003FB60FB6823F00303FB6030
:103580003B681B68FA681343FB607B6923F4007394
:103590007B613B689B681B027A6913437B617B6894
:1035A000214A934203D07B68204A93420DD17B6924
:1035B00023F400637B613B68DB681B027A69134379
:1035C0007B617B6923F480637B617B68164A93424D
:1035D00003D07B68154A934213D13B6923F480538F
:1035E0003B613B6923F400533B613B685B691B0112
:1035F0003A6913433B613B689B691B013A6913437A
:103600003B617B683A695A607B68FA68DA613B68BB
:103610005A687B68DA637B687A691A6200BF1C3774
:10362000BD465DF8047B7047000001400004014086
:1036300080B487B000AF786039607B681B6A23F480
:1036400080527B681A627B681B6A3B617B685B689F
:103650007B617B68DB69FB60FB6823F4E043FB6014
:10366000FB6823F44073FB603B681B681B02FA682D
:103670001343FB603B6923F400533B613B689B6849
:103680001B033A6913433B617B68124A934203D0A0
:103690007B68114A934209D17B6923F480437B61A3
:1036A0003B685B699B017A6913437B617B687A693C
:1036B0005A607B68FA68DA613B685A687B681A640A
:1036C0007B683A691A6200BF1C37BD465DF8047B0F
:1036D000704700BF000001400004014080B487B083
:1036E00000AFF860B9607A60FB681B6A7B61FB68B9
:1036F0001B6A23F00102FB681A62FB689B693B614D
:103700003B6923F0F0033B617B681B013A6913437B
:103710003B617B6923F00A037B617A69BB681343D1
:103720007B61FB683A699A61FB687A691A6200BF3B
:103730001C37BD465DF8047B704780B487B000AF8E
:10374000F860B9607A60FB681B6A23F01002FB68BE
:103750001A62FB689B697B61FB681B6A3B617B6942
:1037600023F470437B617B681B037A6913437B619D
:103770003B6923F0A0033B61BB681B013A6913431B
:103780003B61FB687A699A61FB683A691A6200BF1B
:103790001C37BD465DF8047B704780B485B000AF30
:1037A000786039607B689B68FB60FB6823F070037E
:1037B000FB603A68FB68134343F00703FB607B68D8
:1037C000FA689A6000BF1437BD465DF8047B704705
:1037D00080B487B000AFF860B9607A603B60FB6886
:1037E0009B687B617B6923F47F437B613B681A02A2
:1037F0007B681A43BB6813437A6913437B61FB6898
:103800007A699A6000BF1C37BD465DF8047B70473B
:1038100080B487B000AFF860B9607A60BB6803F02D
:103820001F03012202FA03F37B61FB681A6A7B69BA
:10383000DB431A40FB681A62FB681A6ABB6803F034
:103840001F03796801FA03F31A43FB681A6200BF89
:103850001C37BD465DF8047B7047000080B485B01E
:1038600000AF786039607B6893F83C30012B01D160
:1038700002235AE07B68012283F83C207B68022205
:1038800083F83D207B681B685B68FB607B681B6876
:103890009B68BB60FB6823F07003FB603B681B68A0
:1038A000FA681343FB607B681B68FA685A607B68A0
:1038B0001B68214A934222D07B681B68B3F1804F7A
:1038C0001DD07B681B681D4A934218D07B681B681B
:1038D0001B4A934213D07B681B681A4A93420ED04E
:1038E0007B681B68184A934209D07B681B68174A9B
:1038F000934204D07B681B68154A93420CD1BB6885
:1039000023F08003BB603B685B68BA681343BB600D
:103910007B681B68BA689A607B68012283F83D2047
:103920007B68002283F83C20002318461437BD46EC
:103930005DF8047B704700BF0000014000040040B8
:1039400000080040000C004000040140004001401D
:103950000018004080B582B000AF7860514B524AE9
:1039600000215248FDF7B4FF0346002B0AD000F0B7
:103970000BFE01F0A5FA4E4801F0B4FA4FF47A704C
:10398000FDF700FB484B1B684A4A1288934240F0FF
:103990008480444B1B781E2B25D9474B01221A608B
:1039A000464B01221A803F4B5B78312B10D8424B9B
:1039B00001221A60414B02221A803A4B9B78092B54
:1039C0006BD83D4B01221A603C4B03221A8064E005
:1039D000344B9B78092B60D8374B01221A60374B48
:1039E00007221A8059E02F4B5B78312B25D8324BB8
:1039F00001221A60314B04221A802A4B1B781E2B9D
:103A000010D92D4B01221A602C4B02221A80254B13
:103A10009B78092B41D8284B01221A60274B03229F
:103A20001A803AE01F4B9B78092B36D8224B012293
:103A30001A60224B05221A802FE01A4B9B78092B23
:103A400025D81D4B01221A601C4B06221A80154BEB
:103A50001B781E2B10D9184B01221A60174B072216
:103A60001A80104B5B78312B17D8134B01221A6048
:103A7000124B03221A8010E00A4B5B78312B0CD8D2
:103A80000D4B01221A600D4B07221A8005E00A4BEC
:103A900001221A60094B00221A8000BF0837BD4678
:103AA00080BD00BF40030020C80300208803002021
:103AB000407D0008060000200C02002000020020CB
:103AC00080B58AB00AAFFDF7EBF900F067F800F0B7
:103AD000BFFA00F01FF900F06DFA00F0C9F800F02D
:103AE0007DF900F0F1F900212448FFF7DFF92448BF
:103AF000FDF7AAFE0346002B01D000F045FD022190
:103B00001F48FDF7F7FF0346002B01D000F03CFDF6
:103B10001C4B1B881A461C4B1A601B4B00225A6018
:103B2000194B0022DA60184B00229A60164B0422CF
:103B30001A61154B00221A758023089340230793BE
:103B40002023069310230593104B0493082303931B
:103B50000423029302230193012300930B4B1022B1
:103B600008210B4801F00CF90A4B1B68012BFBD113
:103B7000094B1B88184600F005FBF5E7AC02002056
:103B80008803002008000020B0030020000C024041
:103B9000000402400C0200200002002080B594B016
:103BA00000AF07F1200330220021184601F01EFA71
:103BB00007F10C0300221A605A609A60DA601A61F9
:103BC0000023BB60284B1B6C274A43F080531364CF
:103BD000254B1B6C03F08053BB60BB6800237B60EC
:103BE000224B1B68214A43F4804313601F4B1B6820
:103BF00003F480437B607B6801233B624FF4803396
:103C00007B620223BB634FF48003FB6304233B64AA
:103C1000A8237B640223BB640723FB6407F1200312
:103C20001846FEF79FFC0346002B01D000F0ACFCC9
:103C30000F23FB6002233B6100237B614FF4A05301
:103C4000BB614FF48053FB6107F10C03052118465B
:103C5000FEF7F8FE0346002B01D000F095FC00BFF4
:103C60005037BD4680BD00BF0038024000700040A4
:103C700080B584B000AF3B4600221A605A609A605B
:103C8000DA60214B214A1A601F4B4FF480325A6090
:103C90001D4B00229A601C4B00221A611A4B002215
:103CA0001A76194B002283F82020174B0022DA6283
:103CB000154B174A9A62144B0022DA60124B01220C
:103CC000DA61114B002283F830200F4B01225A6138
:103CD0000D48FDF77BF90346002B01D000F054FCA2
:103CE00001233B6001237B600023BB603B461946F8
:103CF0000548FDF7AFF90346002B01D000F044FC66
:103D000000BF1037BD4680BDEC02002000200140FE
:103D10000100000F80B500AF2C4B2D4A1A602B4BD1
:103D20000E225A60294B00229A60284B0022DA604A
:103D3000264B4FF480321A61244B4FF400125A6123
:103D4000224B00221A76214B00225A761F4B00226A
:103D50009A761E4B0022DA761C4B00221A771B4BF8
:103D600000225A771948FDF793FB0346002B04D035
:103D7000184B01221A6000F007FC174B12225A61FF
:103D8000154B00229A61144B0122DA61124B00227A
:103D90001A60114B00225A600F4B00229A600E4BA2
:103DA0000022DA600C4B00221A610B4B01221A62CE
:103DB000094B14225A6208490448FDF765FC034682
:103DC000002B01D000F0E0FB00BF80BD8803002085
:103DD00000640040080200204402002080B58EB03C
:103DE00000AF07F1280300221A605A609A60DA6077
:103DF00007F1200300221A605A603B1D00221A605E
:103E00005A609A60DA601A615A619A612D4B4FF0DC
:103E100080421A602B4B00225A602A4B00229A6083
:103E2000284B4FF0FF32DA60264B00221A61254BF7
:103E300000229A612348FEF7D9FF0346002B01D0E8
:103E400000F0A2FB4FF48053BB6207F12803194630
:103E50001C48FFF72FF90346002B01D000F094FB1C
:103E60001848FEF7EEFF0346002B01D000F08CFB54
:103E700000233B6200237B6207F1200319461148AF
:103E8000FFF7ECFC0346002B01D000F07DFB602324
:103E90007B600023BB600023FB6000237B613B1D34
:103EA000002219460748FFF73FF80346002B01D0D0
:103EB00000F06AFB034800F075FC00BF3837BD46D0
:103EC00080BD00BF4803002080B58EB000AF07F171
:103ED000280300221A605A609A60DA6007F1200312
:103EE00000221A605A603B1D00221A605A609A60D4
:103EF000DA601A615A619A612C4B2D4A1A602B4B79
:103F00006D225A60294B00229A60284BFF22DA600A
:103F1000264B00221A61254B00229A612348FEF7A6
:103F200065FF0346002B01D000F02EFB4FF48053B9
:103F3000BB6207F1280319461C48FFF7BBF803468C
:103F4000002B01D000F020FB1848FEF77AFF034653
:103F5000002B01D000F018FB00233B6200237B62A2
:103F600007F1200319461148FFF778FC0346002BA0
:103F700001D000F009FB60237B600023BB600023BD
:103F8000FB6000237B613B1D002219460748FEF7BA
:103F9000CBFF0346002B01D000F0F6FA034800F0F7
:103FA00001FC00BF3837BD4680BD00BFAC02002019
:103FB0000004004080B586B000AF07F1080300227E
:103FC0001A605A609A60DA603B4600221A605A60B2
:103FD0001D4B1E4A1A601C4BA7225A601A4B002226
:103FE0009A60194B4FF6FF72DA60174B00221A6184
:103FF000154B00229A611448FEF7F8FE0346002B89
:1040000001D000F0C1FA4FF48053BB6007F1080300
:1040100019460D48FFF74EF80346002B01D000F07B
:10402000B3FA00233B6000237B603B4619460648F9
:10403000FFF714FC0346002B01D000F0A5FA00BFE7
:104040001837BD4680BD00BF6C020020000800404C
:1040500080B58AB000AF07F1140300221A605A60DD
:104060009A60DA601A6100233B61424B1B6B414A44
:1040700043F0800313633F4B1B6B03F080033B61F2
:104080003B690023FB603B4B1B6B3A4A43F0010347
:104090001363384B1B6B03F00103FB60FB680023C9
:1040A000BB60344B1B6B334A43F008031363314B43
:1040B0001B6B03F00803BB60BB6800237B602D4BC8
:1040C0001B6B2C4A43F0020313632A4B1B6B03F058
:1040D00002037B607B68002241F2FF012648FEF765
:1040E0000DFA00224FF480712448FEF707FA0022EF
:1040F00018212348FEF702FA41F2FF037B610123F6
:10410000BB610023FB6100233B6207F114031946E6
:104110001948FEF757F84FF480737B610123BB61A8
:104120000023FB6100233B6207F114031946134887
:10413000FEF748F84FF400737B610023BB61002356
:10414000FB6107F1140319460C48FEF73BF81823EE
:104150007B610123BB610023FB6100233B6207F10C
:10416000140319460648FEF72DF800BF2837BD4650
:1041700080BD00BF00380240000C02400000024039
:104180000004024080B582B000AF0346FB80FB888C
:10419000072B00F2E88101A252F823F0BD4100088C
:1041A000DD4100082F420008C14200087F4300089B
:1041B000D143000863440008D544000800F088FE9D
:1041C0004FF4FA70FCF7DEFE00F07AFEB94800F01A
:1041D00089FE4FF47A70FCF7D5FEC5E100F078FE59
:1041E0004FF4FA70FCF7CEFE00F06AFEB24B1B787B
:1041F00007EE903AF8EE677A17EE900AFCF7A4F90A
:1042000002460B46AD4800F06DFE4FF48051AC48BD
:10421000FEF78DF9AB4B1A78AB4B1B685A634FF422
:104220007A70FCF7AFFEA74B00221A709CE100F0F9
:104230004FFE4FF4FA70FCF7A5FE00F041FE9E4BD6
:104240001B7807EE903AF8EE677A17EE900AFCF7C3
:104250007BF902460B46994800F044FE4FF480512A
:104260009748FEF764F9974B1A78974B1B685A6387
:104270004FF47A70FCF786FE924B00221A7000F021
:1042800027FE4FF4FA70FCF77DFE00F019FE8A4B12
:104290005B7807EE903AF8EE677A17EE900AFCF733
:1042A00053F902460B46894800F01CFE4FF480513A
:1042B0008348FEF73CF94FF47A70FCF763FE53E154
:1042C00000F006FE4FF4FA70FCF75CFE00F0F8FD1B
:1042D000794B1B7807EE903AF8EE677A17EE900A62
:1042E000FCF732F902460B46744800F0FBFD754BB3
:1042F0001A78754B1B685A634FF47A70FCF742FECC
:10430000704B00221A7000F0E3FD4FF4FA70FCF7D6
:1043100039FE00F0D5FD684B5B7807EE903AF8EE79
:10432000677A17EE900AFCF70FF902460B466748CA
:1043300000F0D8FD4FF47A70FCF724FE00F0C8FDC1
:104340004FF4FA70FCF71EFE00F0BAFD5A4B9B7852
:1043500007EE903AF8EE677A17EE900AFCF7F4F859
:1043600002460B465A4800F0BDFD4FF480515448B8
:10437000FEF7DDF84FF47A70FCF704FEF4E000F08D
:10438000A7FD4FF4FA70FCF7FDFD00F099FD4A4BD4
:104390005B7807EE903AF8EE677A17EE900AFCF732
:1043A000D3F802460B46494800F09CFD4FF480517B
:1043B0004348FEF7BCF8434B1A78434B1B685A63DB
:1043C0004FF47A70FCF7DEFD3E4B00221A70CBE012
:1043D00000F07EFD4FF4FA70FCF7D4FD00F070FDA4
:1043E000354B5B7807EE903AF8EE677A17EE900A55
:1043F000FCF7AAF802460B46344800F073FD4FF470
:1044000080512F48FEF793F82E4B1A782E4B1B68DD
:104410005A634FF47A70FCF7B5FD2A4B00221A70EC
:1044200000F056FD4FF4FA70FCF7ACFD00F048FDCB
:10443000214B9B7807EE903AF8EE677A17EE900AD8
:10444000FCF782F802460B46214800F04BFD4FF482
:1044500080511B48FEF76BF84FF47A70FCF792FD21
:1044600082E000F035FD4FF4FA70FCF78BFD00F0B0
:1044700027FD114B9B7807EE903AF8EE677A17EE1E
:10448000900AFCF761F802460B46114800F02AFD3D
:104490004FF480510A48FEF74AF80A4B1A780A4B43
:1044A0001B685A634FF47A70FCF76CFD054B0022D1
:1044B0001A7059E0507D000840030020607D00081C
:1044C000000C02400A000020AC020020747D0008AD
:1044D000847D000800F0FCFC4FF4FA70FCF752FDFC
:1044E00000F0EEFC224B1B7807EE903AF8EE677A6C
:1044F00017EE900AFCF728F802460B461D4800F01C
:10450000F1FC4FF480511C48FEF711F81B4B1A7850
:104510001B4B1B685A634FF47A70FCF733FD174B43
:1045200000221A7000F0D4FC4FF4FA70FCF72AFD58
:1045300000F0C6FC0E4B9B7807EE903AF8EE677AD7
:1045400017EE900AFCF700F802460B460D4800F003
:10455000C9FC4FF480510848FDF7E9FF4FF47A7029
:10456000FCF710FD00E000BF00BF0837BD4680BD6E
:1045700040030020607D0008000C02400A0000207B
:10458000AC020020847D000880B400AF72B600BF8A
:10459000FEE7000080B582B000AF00237B60104BC7
:1045A0005B6C0F4A43F4804353640D4B5B6C03F424
:1045B00080437B607B6800233B60094B1B6C084A8F
:1045C00043F080531364064B1B6C03F080533B6035
:1045D0003B680720FDF7B4FD00BF0837BD4680BD2E
:1045E0000038024080B58AB000AF786007F114034C
:1045F00000221A605A609A60DA601A617B681B6850
:10460000174A934227D100233B61164B5B6C154A36
:1046100043F480735364134B5B6C03F480733B610E
:104620003B690023FB600F4B1B6B0E4A43F00103F9
:1046300013630C4B1B6B03F00103FB60FB6802234D
:104640007B610323BB610023FB6107F1140319465F
:104650000548FDF7B7FD00BF2837BD4680BD00BF48
:1046600000200140003802400000024080B58AB0BE
:1046700000AF786007F1140300221A605A609A6054
:10468000DA601A617B681B681D4A934234D10023AB
:104690003B611C4B1B6C1B4A43F000731364194BAA
:1046A0001B6C03F000733B613B690023FB60154BFF
:1046B0001B6B144A43F002031363124B1B6B03F092
:1046C0000203FB60FB684FF440737B610223BB6114
:1046D0000023FB6103233B6209237B6207F1140380
:1046E00019460948FDF76EFD002200211420FDF750
:1046F00032FD1420FDF74BFD00BF2837BD4680BDBD
:1047000000640040003802400004024080B487B0DA
:1047100000AF78607B681B68B3F1804F0ED1002337
:104720007B611D4B1B6C1C4A43F0010313641A4B45
:104730001B6C03F001037B617B6926E07B681B68CF
:10474000164A93420ED100233B61134B1B6C124A55
:1047500043F002031364104B1B6C03F002033B6134
:104760003B6912E07B681B680D4A93420DD1002320
:10477000FB60094B1B6C084A43F004031364064BAF
:104780001B6C03F00403FB60FB6800BF1C37BD46D5
:104790005DF8047B704700BF003802400004004011
:1047A0000008004080B58AB000AF786007F11403BC
:1047B00000221A605A609A60DA601A617B681B688E
:1047C000B3F1804F1ED100233B61224B1B6B214A6A
:1047D00043F0010313631F4B1B6B03F001033B61A9
:1047E0003B6901237B610223BB610023FB61002342
:1047F0003B6201237B6207F1140319461648FDF75B
:10480000E1FC22E07B681B68144A93421DD100231F
:10481000FB60104B1B6B0F4A43F0010313630D4BFE
:104820001B6B03F00103FB60FB6840237B610223E9
:10483000BB610023FB6100233B6202237B6207F123
:10484000140319460448FDF7BDFC00BF2837BD46D8
:1048500080BD00BF0038024000000240000400405C
:1048600080B400AFFEE780B400AFFEE780B400AFD5
:10487000FEE780B400AFFEE780B400AFFEE780B48F
:1048800000AF00BFBD465DF8047B704780B400AF49
:1048900000BFBD465DF8047B704780B400AF00BF29
:1048A000BD465DF8047B704780B500AFFCF74AFB5E
:1048B00000BF80BD80B500AF0248FDF741F900BFE1
:1048C00080BD00BF8803002080B400AF01231846DC
:1048D000BD465DF8047B704780B582B000AF78605C
:1048E000396000F059FB034616221A604FF0FF337F
:1048F00018460837BD4680BD80B582B000AF7860ED
:104900004FF0FF317868FFF7E7FFFEE780B586B02C
:1049100000AFF860B9607A6000237B610AE0AFF312
:1049200000800146BB685A1CBA60CAB21A707B6923
:1049300001337B617A697B689A42F0DB7B681846B9
:104940001837BD4680BD80B586B000AFF860B9604D
:104950007A6000237B6109E0BB685A1CBA601B784F
:104960001846AFF300807B6901337B617A697B680D
:104970009A42F1DB7B6818461837BD4680BD0000BF
:1049800080B584B000AF7860114B1B68002B02D15A
:104990000F4B104A1A600E4B1B68FB600C4B1A68D9
:1049A0007B6813446A46934207D900F0F5FA034640
:1049B0000C221A604FF0FF3306E0054B1A687B6843
:1049C0001344034A1360FB6818461037BD4680BD88
:1049D00014020020F803002080B483B000AF786098
:1049E0004FF0FF3318460C37BD465DF8047B704727
:1049F00080B483B000AF786039603B684FF40052F8
:104A00005A60002318460C37BD465DF8047B70479A
:104A100080B483B000AF7860012318460C37BD46E0
:104A20005DF8047B704780B485B000AFF860B96072
:104A30007A60002318461437BD465DF8047B704742
:104A400080B400AF084BD3F88830074A43F47003B2
:104A5000C2F88830044B4FF000629A6000BFBD4638
:104A60005DF8047B704700BF00ED00E080B400AF4C
:104A7000144BDB68134A23F08073D360114BDB685F
:104A8000104A43F08073D3600F4B1B680E4A23F02B
:104A9000010313600C4B1B680B4A43F001031360C6
:104AA000094B00225A6000BF00BF00BF064B5B6885
:104AB000002B01D0002300E001231846BD465DF81D
:104AC000047B7047F0ED00E0001000E080B584B09A
:104AD00000AF78600D4B5B68FB60FEF77BF9034627
:104AE0000B4AA2FB03239B0C7A6802FB03F37B6057
:104AF00000BF064B5A68FB68D21A7B689A42F8D30B
:104B000000BF00BF1037BD4680BD00BF001000E0F1
:104B100083DE1B4380B500AF0B4B1B680B4A11882B
:104B200001221846FDF7EAFC1420FFF7CFFF064BE1
:104B30001B68064A118800221846FDF7DFFC3C205E
:104B4000FFF7C4FF00BF80BD180200201E02002036
:104B500080B582B000AF0346FB71064B1B68064A66
:104B60001188FA791846FDF7C9FC00BF0837BD4621
:104B700080BD00BF180200201C02002080B584B058
:104B800000AF0346FB71FB7903F00F03FB73FB7966
:104B90001B09BB735F4B1B78002B5AD05E4B186808
:104BA0005E4B1988FB7B03F00103DBB21A46FDF76D
:104BB000A5FC594B18685A4B1988FB7B03F002037C
:104BC000DBB21A46FDF79AFC534B1868554B19880F
:104BD000FB7B03F00403DBB21A46FDF78FFC4E4B60
:104BE0001868514B1988FB7B03F00803DBB21A46A7
:104BF000FDF784FC4D4B18684D4B1988BB7B03F0C7
:104C00000103DBB21A46FDF779FC484B1868494BA3
:104C10001988BB7B03F00203DBB21A46FDF76EFC7A
:104C2000424B1868444B1988BB7B03F00403DBB28A
:104C30001A46FDF763FC3D4B1868404B1988BB7B57
:104C400003F00803DBB21A46FDF758FCFFF762FFDA
:104C50005BE0364B1868364B1988BB7B03F00103C9
:104C6000DBB21A46FDF74AFC304B1868314B198805
:104C7000BB7B03F00203DBB21A46FDF73FFC2B4B74
:104C800018682D4B1988BB7B03F00403DBB21A466E
:104C9000FDF734FC254B1868284B1988BB7B03F0C3
:104CA0000803DBB21A46FDF729FCFFF733FF1F4B61
:104CB00018681F4B1988FB7B03F00103DBB21A460F
:104CC000FDF71CFC194B18681A4B1988FB7B03F085
:104CD0000203DBB21A46FDF711FC144B1868164BA1
:104CE0001988FB7B03F00403DBB21A46FDF706FCD0
:104CF0000E4B1868114B1988FB7B03F00803DBB2DD
:104D00001A46FDF7FBFBFFF705FF00BF1037BD4656
:104D100080BD00BF100000202002002024020020DF
:104D200026020020280200202A0200202C02002057
:104D3000300200203202002034020020360200201F
:104D400080B582B000AF0346FB710020FFF700FF83
:104D5000FB791846FFF712FF00BF0837BD4680BD3C
:104D600080B582B000AF0346FB710120FFF7F0FE73
:104D7000FB791846FFF702FF00BF0837BD4680BD2C
:104D800080B584B000AFF8607B600B467B81134632
:104D90003B81FFF76BFE294AFB681360284A7B8939
:104DA0001380284A3B891380274A7B681360274A6F
:104DB0003B8B1380264ABB8B1380264A3B8C138087
:104DC000254ABB8C1380254ABB6A1360244ABB8DDD
:104DD0001380244A3B8E1380234ABB8E1380234AC0
:104DE0003B8F1380224B01221A70224B38221A70FB
:104DF0001420FCF7C7F83020FFF7A2FF0520FCF7CE
:104E0000C1F83020FFF79CFF0120FCF7BBF83020F1
:104E1000FFF796FF0120FCF7B5F83820FFF790FF69
:104E20000F20FFF78DFF0120FFF78AFF0220FCF71C
:104E3000A9F800BF1037BD4680BD00BF1802002092
:104E40001C0200201E02002020020020240200205C
:104E500026020020280200202A0200202C02002026
:104E600030020020320200203402002036020020EE
:104E7000100000201200002080B584B000AF03466F
:104E80000A46FB711346BB71BB7903F00F03FB733A
:104E9000FB79002B08D1FB7B63F07F03FB73FB7B6B
:104EA0001846FFF74DFF07E0FB7B63F03F03FB7302
:104EB000FB7B1846FFF744FF00BF1037BD4680BD9F
:104EC00080B500AF00210020FFF7D6FF00BF80BDF6
:104ED00080B500AF0120FFF733FF0320FCF752F845
:104EE00000BF80BD0FB490B589B000AF07F13403A7
:104EF0007B6007F108037A68396B184600F0FEFC06
:104F00000023FB770BE0FB7F07F12002134413F82B
:104F1000183C1846FFF724FFFB7F0133FB77FC7F2B
:104F200007F108031846FBF753F903469C4202D2E7
:104F3000FB7F0F2BE7D900BF2437BD46BDE890406B
:104F400004B07047DFF834D0002103E00C4B5B580D
:104F5000435004310B480C4B42189A42F6D30B4A8B
:104F600002E0002342F8043B094B9A42F9D3FFF7D1
:104F700067FD00F017F8FEF7A3FD70470000022060
:104F80009C81000800000020E4010020E4010020D2
:104F9000F8030020FEE70000014B1868704700BFCF
:104FA0001400002070B50D4D0D4C641BA41000269C
:104FB000A64209D10B4D0C4C02F0B4FE641BA410A8
:104FC0000026A64205D170BD55F8043B984701362E
:104FD000EEE755F8043B98470136F2E79481000864
:104FE00094810008948100089881000802440346D7
:104FF000934200D1704703F8011BF9E72DE9FF4701
:1050000055EC104B002D0E4619462B46BBBF05F143
:1050100000431D4600232D230B700D9BDDF830A0AF
:10502000914623F02008BCBF22461446B8F1460F33
:1050300005D0B8F1450F00D10136022100E003216F
:1050400003AB019302AB009345EC104B5346324641
:1050500000F0EAFCB8F1470F074602D119F0010F42
:1050600022D0B8F1460F07EB060910D13B78302B60
:105070000AD10022002320462946FBF725FD18B956
:10508000C6F10106CAF80060DAF80030994400223F
:10509000002320462946FBF717FD08B1CDF80C90F8
:1050A0003022039B4B4507D3039B0E9ADB1B3846EC
:1050B000136004B0BDE8F087591C03911A70F0E743
:1050C000F7B503460029B8BF494203F8022BB4BF25
:1050D0002D222B22092942702ADD0DF10704A44656
:1050E0000A27A6460A4691FBF7F607FB1615303548
:1050F000632A04F1FF340EF8015C3146F1DC3031F3
:10510000AEF1020504F8011C441C294661450AD38E
:105110000DF10902A2EB0E02654588BF002213447F
:10512000181A03B0F0BD11F8012B04F8012FEDE7B8
:10513000302330318370C170031DF1E72DE9F04F4A
:105140002DED028B8DB00C46DDF8608016461F46B3
:10515000054601F055FAD0F800A05046FBF738F8A4
:1051600000230A9323680593D8F8003094F818B008
:10517000073323F0070303F10802C8F80020D3E93E
:105180000023C4E91223D4E9128929F000430793CC
:10519000CDF8188008EE100A9F4BDDE906014FF0AC
:1051A000FF32FBF7C3FC88BBDDE906019A4B4FF0E9
:1051B000FF32FBF79DFC48BB0022002340464946D6
:1051C000FBF78CFC10B12D2384F84330934B9448AB
:1051D000BBF1470F94BF9846804603232361059B8C
:1051E00023F0040222604FF00009009733460BAA17
:1051F0002146284600F0D8F9013040F090804FF069
:10520000FF300DB0BDEC028BBDE8F08F42464B463F
:1052100040464946FBF78AFC40B14B46002BBCBFD9
:105220002D2384F843307F487F4BD1E763680BF030
:10523000DF0206925A1C3FD106236360059B61681A
:1052400043F48062002303930AABCDE901B309ABB9
:1052500049EC108B009322600DF123032846FFF7E1
:10526000CDFE069B0999472B804608D1C81C02DB5E
:105270006368994241DDABF1020B5FFA8BFBBBF136
:10528000650F20D801395A4604F150000991FFF703
:1052900017FF0A9A1318012A8146236102DC22684B
:1052A000D20701D5013323619DF82330002B9CD018
:1052B0002D2384F8433098E7069A472ABED1002B65
:1052C000BCD10123B9E7BBF1660F18D1002963688F
:1052D0000BDD216113B92268D00702D501330B44DD
:1052E0002361A1654FF00009DEE713B92268D207F8
:1052F00001D50233F4E70123F2E74FF0670B0A9B75
:10530000994205DB23682161D807EAD54B1CE7E702
:105310000029D4BFC1F1020201221344E0E723684F
:105320005A0507D42369424631462846B84701301A
:105330002CD164E7BBF1650F40F2E080D4E91201A3
:1053400000220023FBF7C0FB002834D0374A01239A
:1053500031462846B84701303FF451AFDDE9092313
:105360009A4202DB2368D80710D518EE103A52464D
:1053700031462846B84701303FF441AF4FF00008AE
:1053800004F11A090A9B013B434509DC23689B078A
:1053900000F10581E0680B9B9842B8BF184630E7E2
:1053A00001234A4631462846B84701303FF427AF2B
:1053B00008F10108E6E7099B002B39DC1B4A0123B1
:1053C00031462846B84701303FF419AFDDE90923DB
:1053D000134302D12368D907D8D518EE103A5246A4
:1053E00031462846B84701303FF409AF4FF0000975
:1053F00004F11A0A099B5B424B4501DC0A9B92E7C8
:105400000123524631462846B84701303FF4F7AEF3
:1054100009F10109EEE700BFFFFFEF7FB07D000853
:10542000B47D0008BC7D0008B87D0008C07D000880
:105430000A9AA36D9A42A8BF1A46002A914637DC01
:105440004FF0000B29EAE97904F11A02A36D0593E4
:10545000A3EB09035B4533DCDDE909239A423BDB1F
:105460002368DA0738D40A9A059B0999D31AA2EB64
:1054700001099945A8BF9946B9F1000F35DC4FF0F5
:10548000000829EAE97904F11A0ADDE909239B1ADF
:10549000A3EB090343457FF779AF01235246314619
:1054A0002846B84701303FF4AAAE08F10108ECE7FE
:1054B0001346314642462846B8470130C0D19EE6E1
:1054C0000123314628460592B84701303FF497AE94
:1054D000059A0BF1010BB9E718EE103A5246314626
:1054E0002846B8470130BED189E6059A4B4642446A
:1054F00031462846B8470130C1D180E60A9A012AD0
:1055000001DCDB0738D50123424631462846B8473F
:1055100001303FF474AE18EE103A52463146284638
:10552000B84701303FF46BAED4E9120100220023EA
:10553000FBF7CAFAD8B90A9B08F10102013B3146D0
:105540002846B84701300ED159E60123524631466C
:105550002846B84701303FF452AE08F101080A9BD3
:10556000013B4345F1DC4B4604F15002DCE64FF0D1
:10557000000804F11A0AF2E701234246DFE701239B
:105580004A4631462846B84701303FF438AE08F164
:105590000108E3680B995B1A4345F0DCFAE64FF02B
:1055A000000804F11909F4E72DE9F0471646994679
:1055B0008A680B69DDF820809342B8BF13463360D8
:1055C00091F8432007460C460AB101333360236843
:1055D000990642BF336802333360256815F006052B
:1055E00006D104F1190AE36832689B1AAB4226DC43
:1055F00094F84320131E226818BF012392062BD46F
:1056000004F1430249463846C04701301ED02368A2
:10561000E568326803F00603042B08BFAD1AA368DF
:1056200022690CBF25EAE57500259342C4BF9B1A89
:10563000ED1800261A34B5421AD1002008E00123E3
:10564000524649463846C047013003D14FF0FF303B
:10565000BDE8F0870135C6E7E1185A1C302081F813
:105660004300224494F8451082F843100233C7E700
:105670000123224649463846C0470130E6D001366C
:10568000D9E700002DE9FF470C469146277E0C998B
:10569000782F80469A4604F1430207D8622F0AD831
:1056A000002F00F0D880582F00F0A38004F14206AC
:1056B00084F842703AE0A7F16303152BF6D801A0F5
:1056C00050F823F01D57000831570008AD56000868
:1056D000AD560008AD560008AD5600083157000819
:1056E000AD560008AD560008AD560008AD5600088E
:1056F0003D580008615700081F580008AD560008C3
:10570000AD5600085F580008AD5600086157000804
:10571000AD560008AD560008275800080B681A1D42
:105720001B680A6004F1420684F842300123A3E0BA
:10573000256808682E0600F104030AD505680B6089
:10574000002D03DA2D236D4284F843305E480A238E
:1057500019E015F0400F05680B6018BF2DB2EFE798
:105760000B682568181D0860280601D51D6802E031
:105770006906FBD51D8854486F2F0CBF08230A23E8
:10578000002184F843106668A660002EA2BF21683D
:1057900021F0040121600DB9002E4DD01646B5FB55
:1057A000F3F103FB1157C75D06F8017D2F46BB429D
:1057B0000D46F4D9082B0BD12368DF0708D52369E0
:1057C00061689942DEBF302306F8013C06F1FF36DE
:1057D000921B2261CDF800A04B4603AA2146404609
:1057E000FFF7E2FE01304CD14FF0FF3004B0BDE8CE
:1057F000F087354884F8457023680E681F0656F810
:10580000045B0E6014D5D90744BF43F02003236026
:105810001DB9236823F0200323601023B0E7236819
:1058200043F0200323607823284884F84530E3E7D9
:105830005E0648BFADB2E6E71646BBE70B682668D2
:1058400060691D1D0D6035061B6801D5186002E0FA
:105850007106FBD51880002323611646BAE70B6852
:105860001A1D0A601E68626800213046FAF7B8FC0B
:1058700008B1801B606063682361002384F84330B3
:10588000A8E72369324649464046D0470130ABD0AD
:1058900023689B0713D4E068039B9842B8BF18465F
:1058A000A4E70123324649464046D04701309BD009
:1058B0000135E36803995B1AAB42F2DCEBE70025A4
:1058C00004F11906F5E700BFC27D0008D37D00088A
:1058D00000B59BB0009104916FF0004105910291D9
:1058E00005490391694601F039FB009B00221A70BB
:1058F0001BB05DF804FB00BF0802FFFF13460A4619
:10590000014602480068FFF7E3BF00BF1400002013
:105910002DE9F74F03690C69A3420746C0F2818065
:10592000013C01F1140800F1140505EB8403019317
:1059300058F8243055F8242001339A424FEA840B5A
:1059400008EB8409B2FBF3F631D34FF0000E40466A
:10595000AC46F24650F8042B93B206FB03E34FEA41
:10596000134E9BB2AAEB0303120CDCF800A006FB5B
:1059700002E213FA8AF34FEA124E1FFA82FADCF8B7
:105980000020CAEB124202EB23429BB243EA0243DD
:1059900081454CF8043B4FEA224ADBD255F80B30E4
:1059A0002BB9019B043B9D421A462ED33C613846DD
:1059B00001F0BEF8002824DB013628464FF0000C29
:1059C00058F8042BD0F800E093B2ACEB0303120CB0
:1059D00013FA8EF3C2EB1E4202EB23429BB243EA60
:1059E0000243C14540F8043B4FEA224CE8D255F847
:1059F000242005EB840322B9043B9D421A460AD3B6
:105A00003C61304603B0BDE8F08F1268043B002AC9
:105A1000CCD1013CC7E71268043B002AF0D1013C1D
:105A2000EBE70020EEE700002DE9F04F2DED028BB3
:105A300057EC106B95B0456ADDF880800591CDE993
:105A40000267044609920F9375B9102000F0DCFD3F
:105A50000246606220B9B24BEA21B24801F08EFBE7
:105A6000C0E901550560C560636A196851B15A689B
:105A70004A60012393408B60204600F01BFE636A5E
:105A800000221A603B1EB9BF23F00043039300239A
:105A9000C8F80030DDF80C90A34BBCBF0122C8F859
:105AA000002033EA09031BD10F9A42F20F731360EF
:105AB000C9F31303334300F07A85219B63B99B4BF1
:105AC00024E09B4B00930833219A1360009815B093
:105AD000BDEC028BBDE8F08F944B00930333F3E7EA
