:020000040800F2
:10000000000002204D630008995900089F5900081C
:10001000A5590008AB590008B159000800000000BC
:10002000000000000000000000000000B7590008B8
:10003000C559000800000000D3590008E159000824
:100040009D6300089D6300089D6300089D63000890
:100050009D6300089D6300089D6300089D63000880
:100060009D6300089D6300089D6300089D63000870
:100070009D6300089D6300089D6300089D63000860
:100080009D6300089D6300089D6300089D63000850
:10009000ED5900089D6300089D6300089D630008FA
:1000A0009D6300089D6300089D6300089D63000830
:1000B0009D6300089D6300089D6300089D63000820
:1000C0009D6300089D6300089D6300089D63000810
:1000D0009D6300089D6300089D6300089D63000800
:1000E0009D6300089D6300089D6300089D630008F0
:1000F0009D6300089D6300089D6300089D630008E0
:100100009D6300089D6300089D6300089D630008CF
:100110009D6300089D6300089D6300089D630008BF
:100120009D6300089D6300089D6300089D630008AF
:100130009D6300089D6300089D6300089D6300089F
:100140009D6300089D6300089D6300089D6300088F
:100150009D6300089D6300089D6300089D6300087F
:100160009D6300089D6300089D6300089D6300086F
:100170009D6300089D6300089D6300080000000067
:080180009D6300089D63000867
:1001900010B5054C237833B9044B13B10448AFF3C1
:1001A00000800123237010BDE40100200000000046
:1001B000A48D000808B5034B1BB103490348AFF3F6
:1001C000008008BD00000000E8010020A48D0008A8
:1001D000034613F8012B002AFBD1181A0138704787
:1001E00001F0FF01102A2BDB10F0070F08D010F8E8
:1001F000013B013A8B422DD010F0070F42B3F6D1EC
:10020000F0B441EA012141EA014122F007047FF004
:1002100000070023F0E80256083C85EA010586EA5B
:10022000010685FA47F5A3FA87F586FA47F6A5FA97
:1002300087F68EB9EED1F0BC01F0FF0102F00702A3
:1002400032B110F8013B013A83EA010313B1F8D14E
:100250000020704701387047002D06BF354603382F
:10026000073815F0010F07D1013015F4807F02BF68
:10027000013015F4C03F0130F0BC0138704700BFB9
:1002800081F0004102E000BF83F0004330B54FEA47
:1002900041044FEA430594EA050F08BF90EA020FB4
:1002A0001FBF54EA000C55EA020C7FEA645C7FEA47
:1002B000655C00F0E2804FEA5454D4EB5555B8BF6A
:1002C0006D420CDD2C4480EA020281EA030382EADB
:1002D000000083EA010180EA020281EA0303362D6D
:1002E00088BF30BD11F0004F4FEA01314FF4801C40
:1002F0004CEA113102D0404261EB410113F0004F52
:100300004FEA03334CEA133302D0524263EB430308
:1003100094EA050F00F0A780A4F10104D5F1200EA6
:100320000DDB02FA0EFC22FA05F2801841F1000101
:1003300003FA0EF2801843FA05F359410EE0A5F1D5
:1003400020050EF1200E012A03FA0EFC28BF4CF006
:10035000020C43FA05F3C01851EBE37101F00045BC
:1003600007D54FF0000EDCF1000C7EEB00006EEBC9
:100370000101B1F5801F1BD3B1F5001F0CD3490853
:100380005FEA30004FEA3C0C04F101044FEA4452AA
:1003900012F5800F80F09A80BCF1004F08BF5FEA31
:1003A000500C50F1000041EB045141EA050130BD11
:1003B0005FEA4C0C404141EB0101013C28BFB1F523
:1003C000801FE9D291F0000F04BF01460020B1FA6E
:1003D00081F308BF2033A3F10B03B3F120020CDA41
:1003E0000C3208DD02F1140CC2F10C0201FA0CF01F
:1003F00021FA02F10CE002F11402D8BFC2F1200C84
:1004000001FA02F120FA0CFCDCBF41EA0C01904039
:10041000E41AA2BF01EB0451294330BD6FEA040482
:100420001F3C1CDA0C340EDC04F11404C4F120026D
:1004300020FA04F001FA02F340EA030021FA04F37F
:1004400045EA030130BDC4F10C04C4F1200220FAD6
:1004500002F001FA04F340EA0300294630BD21FA14
:1004600004F0294630BD94F0000F83F4801306BFDA
:1004700081F480110134013D4EE77FEA645C18BFCE
:100480007FEA655C29D094EA050F08BF90EA020F65
:1004900005D054EA000C04BF1946104630BD91EA5D
:1004A000030F1EBF0021002030BD5FEA545C05D160
:1004B0004000494128BF41F0004130BD14F580049F
:1004C0003CBF01F5801130BD01F0004545F0FE4113
:1004D00041F470014FF0000030BD7FEA645C1ABF48
:1004E000194610467FEA655C1CBF0B46024650EA7F
:1004F000013406BF52EA033591EA030F41F40021AB
:1005000030BD00BF90F0000F04BF0021704730B530
:100510004FF4806404F132044FF000054FF0000105
:1005200050E700BF90F0000F04BF0021704730B5C6
:100530004FF4806404F1320410F0004548BF40429B
:100540004FF000013EE700BF42004FEAE2014FEAF0
:1005500031014FEA02701FBF12F07F4393F07F4FCB
:1005600081F06051704732F07F4208BF704793F0CE
:100570007F4F04BF41F40021704730B54FF46074E1
:1005800001F0004521F000411CE700BF50EA0102E4
:1005900008BF704730B54FF000050AE050EA01028D
:1005A00008BF704730B511F0004502D5404261EBFD
:1005B00041014FF4806404F132045FEA915C3FF43E
:1005C000D8AE4FF003025FEADC0C18BF03325FEADB
:1005D000DC0C18BF033202EBDC02C2F1200300FA8C
:1005E00003FC20FA02F001FA03FE40EA0E0021FAB1
:1005F00002F11444BDE600BF70B54FF0FF0C4CF49F
:10060000E06C1CEA11541DBF1CEA135594EA0C0F50
:1006100095EA0C0F00F0DEF82C4481EA030621EA8B
:100620004C5123EA4C5350EA013518BF52EA0335C6
:1006300041F4801143F4801338D0A0FB02CE4FF078
:100640000005E1FB02E506F00042E0FB03E54FF0A8
:100650000006E1FB03569CF0000F18BF4EF0010EA0
:10066000A4F1FF04B6F5007F64F5407404D25FEA9C
:100670004E0E6D4146EB060642EAC62141EA55514F
:100680004FEAC52040EA5E504FEACE2EB4F1FD0C91
:1006900088BFBCF5E06F1ED8BEF1004F08BF5FEA0F
:1006A000500E50F1000041EB045170BD06F00046C1
:1006B00046EA010140EA020081EA0301B4EB5C046E
:1006C000C2BFD4EB0C0541EA045170BD41F4801166
:1006D0004FF0000E013C00F3AB8014F1360FDEBF8B
:1006E000002001F0004170BDC4F10004203C35DA67
:1006F0000C341BDC04F11404C4F1200500FA05F3EA
:1007000020FA04F001FA05F240EA020001F000428A
:1007100021F0004110EBD37021FA04F642EB060100
:100720005EEA430E08BF20EAD37070BDC4F10C042A
:10073000C4F1200500FA04F320FA05F001FA04F2EE
:1007400040EA020001F0004110EBD37041F10001DA
:100750005EEA430E08BF20EAD37070BDC4F12005E5
:1007600000FA05F24EEA020E20FA04F301FA05F24D
:1007700043EA020321FA04F001F0004121FA04F2F5
:1007800020EA020000EBD3705EEA430E08BF20EAC5
:10079000D37070BD94F0000F0FD101F000464000FF
:1007A00041EB010111F4801F08BF013CF7D041EA81
:1007B000060195F0000F18BF704703F00046520085
:1007C00043EB030313F4801F08BF013DF7D043EA56
:1007D0000603704794EA0C0F0CEA135518BF95EA0C
:1007E0000C0F0CD050EA410618BF52EA4306D1D193
:1007F00081EA030101F000414FF0000070BD50EAB2
:10080000410606BF1046194652EA430619D094EA3B
:100810000C0F02D150EA013613D195EA0C0F05D125
:1008200052EA03361CBF104619460AD181EA030179
:1008300001F0004141F0FE4141F470014FF0000031
:1008400070BD41F0FE4141F4780170BD70B54FF0CC
:10085000FF0C4CF4E06C1CEA11541DBF1CEA13554C
:1008600094EA0C0F95EA0C0F00F0A7F8A4EB05042E
:1008700081EA030E52EA03354FEA013100F0888025
:100880004FEA03334FF0805545EA131343EA1263EE
:100890004FEA022245EA111545EA10654FEA0026A3
:1008A0000EF000419D4208BF964244F1FD0404F55C
:1008B000407402D25B084FEA3202B61A65EB0305B8
:1008C0005B084FEA32024FF480104FF4002CB6EB75
:1008D000020E75EB030E22BFB61A754640EA0C00F5
:1008E0005B084FEA3202B6EB020E75EB030E22BF35
:1008F000B61A754640EA5C005B084FEA3202B6EB76
:10090000020E75EB030E22BFB61A754640EA9C0034
:100910005B084FEA3202B6EB020E75EB030E22BF04
:10092000B61A754640EADC0055EA060E18D04FEAC2
:10093000051545EA16754FEA06164FEAC30343EA62
:1009400052734FEAC2025FEA1C1CC0D111F4801F2F
:100950000BD141EA00014FF000004FF0004CB6E728
:1009600011F4801F04BF01430020B4F1FD0C88BFC7
:10097000BCF5E06F3FF6AFAEB5EB030C04BFB6EBD2
:10098000020C5FEA500C50F1000041EB045170BDC5
:100990000EF0004E4EEA113114EB5C04C2BFD4EBF2
:1009A0000C0541EA045170BD41F480114FF0000E76
:1009B000013C90E645EA060E8DE60CEA135594EAF2
:1009C0000C0F08BF95EA0C0F3FF43BAF94EA0C0FF5
:1009D0000AD150EA01347FF434AF95EA0C0F7FF46A
:1009E00025AF104619462CE795EA0C0F06D152EABE
:1009F00003353FF4FDAE1046194622E750EA4106A2
:100A000018BF52EA43067FF4C5AE50EA41047FF4B2
:100A10000DAF52EA43057FF4EBAE12E74FF0FF3C17
:100A200006E000BF4FF0010C02E000BF4FF0010CE8
:100A30004DF804CD4FEA410C7FEA6C5C4FEA430C61
:100A400018BF7FEA6C5C1BD001B050EA410C0CBFB0
:100A500052EA430C91EA030F02BF90EA020F002012
:100A6000704710F1000F91EA030F58BF994208BF79
:100A700090422CBFD8176FEAE37040F00100704736
:100A80004FEA410C7FEA6C5C02D150EA013C07D18D
:100A90004FEA430C7FEA6C5CD6D152EA033CD3D0D8
:100AA0005DF8040B704700BF8446104662468C46D2
:100AB0001946634600E000BF01B5FFF7B7FF002805
:100AC00048BF10F1000F01BD4DF808EDFFF7F4FF2E
:100AD0000CBF012000205DF808FB00BF4DF808EDB9
:100AE000FFF7EAFF34BF012000205DF808FB00BFDC
:100AF0004DF808EDFFF7E0FF94BF012000205DF8FE
:100B000008FB00BF4DF808EDFFF7CEFF94BF0120B2
:100B100000205DF808FB00BF4DF808EDFFF7C4FFAB
:100B200034BF012000205DF808FB00BF4FEA410CF4
:100B30007FEA6C5C02D150EA013C0AD14FEA430CD7
:100B40007FEA6C5C02D152EA033C02D14FF0000014
:100B500070474FF0010070474FEA410212F5001252
:100B600015D211D56FF47873B3EB625212D94FEAF4
:100B7000C12343F0004343EA505311F0004F23FADE
:100B800002F018BF404270474FF00000704750EA33
:100B9000013005D111F0004008BF6FF000407047F0
:100BA0004FF00000704700BF4FEA4102B2F1E0434E
:100BB00024BFB3F5001CDCF1FE5C0DD901F0004C44
:100BC0004FEAC0024CEA5070B2F1004F40EB830094
:100BD00008BF20F00100704711F0804F21D113F1C0
:100BE0003872BCBF01F00040704741F480114FEAF9
:100BF0005252C2F11802C2F1200C10FA0CF320FA82
:100C000002F018BF40F001004FEAC1234FEAD3239E
:100C100003FA0CFC40EA0C0023FA02F34FEA430308
:100C2000CCE77FEA625307D150EA01331EBF4FF091
:100C3000FE4040F44000704701F0004040F0FE40AC
:100C400040F40000704700BF53B94AB9002908BFFB
:100C500000281CBF4FF0FF314FF0FF3000F06EB99D
:100C6000ADF1080C6DE904CE00F006F8DDF804E003
:100C7000DDE9022304B070472DE9F047089D0446E2
:100C80008C46002B40F083808A42174647D9B2FA3F
:100C900082F242B1C2F1200024FA00F09140974064
:100CA00040EA010C94404FEA1748230CBCFBF8F6CD
:100CB0001FFA87FE08FB16C143EA014306FB0EF14B
:100CC000994209D9FB1806F1FF3080F01981994249
:100CD00040F21681023E3B445B1AA4B2B3FBF8F02B
:100CE00008FB103344EA034400FB0EFEA64509D975
:100CF0003C1900F1FF3380F00581A64540F20281E6
:100D000002383C4440EA0640A4EB0E0400261DB124
:100D1000D4400023C5E900433146BDE8F08702B95D
:100D2000FFDEB2FA82F2002A50D1CB1B4FEA174EF7
:100D30001FFA87F80126B3FBFEFC210C0EFB1C33C7
:100D400041EA034108FB0CF38B4207D979180CF1F7
:100D5000FF3002D28B4200F2E9808446C91AA3B266
:100D6000B1FBFEF00EFB101143EA014408FB00F852
:100D7000A04507D93C1900F1FF3302D2A04500F28B
:100D8000D9801846A4EB080440EA0C40BFE78B4228
:100D900009D9002D00F0B1800026C5E900013046D8
:100DA0003146BDE8F087B3FA83F6002E4AD18B4274
:100DB00002D3824200F2B880841A61EB0301012061
:100DC0008C46002DA8D0C5E9004CA5E7C2F1200350
:100DD00020FA03F6974001FA02F04FEA174ED94085
:100DE0003043030CB1FBFEF61FFA87F80EFB161119
:100DF00043EA014306FB08F1994204FA02F409D9D7
:100E0000FB1806F1FF3C80F08D80994240F28A8009
:100E1000023E3B445B1A81B2B3FBFEF00EFB103383
:100E200041EA034100FB08F38B4207D9791800F12E
:100E3000FF3C73D28B4271D902383944CB1A40EA55
:100E4000064678E7C6F1200C03FA06F422FA0CF302
:100E50001C4320FA0CF701FA06F34FEA144E21FA6C
:100E60000CF11F433B0CB1FBFEF91FFA84F80EFB9B
:100E7000191143EA014109FB08FA8A4502FA06F210
:100E800000FA06F308D9611809F1FF3048D28A4503
:100E900046D9A9F102092144A1EB0A01BFB2B1FB75
:100EA000FEF00EFB101147EA014700FB08F8B845B9
:100EB00007D9E71900F1FF312ED2B8452CD90238F5
:100EC000274440EA0940A7EB0807A0FB02894F45E9
:100ED000C64649461AD317D05DB1B3EB0E0267EB95
:100EE000010707FA0CFCF2404CEA0202F740C5E9A0
:100EF000002700263146BDE8F0872E4628460BE73E
:100F00000646E9E61846FDE64345E5D2B8EB020E93
:100F100069EB04010138DFE70846D2E760468DE758
:100F20008146B9E7664675E730464AE7ACF1020C00
:100F3000394413E702383C4424E700BF704700BF40
:100F400080B500AF0E4B1B680D4A43F4007313606D
:100F50000B4B1B680A4A43F480631360084B1B6801
:100F6000074A43F480731360032001F063FA002002
:100F700000F008F804F082FB0023184680BD00BF93
:100F8000003C024080B582B000AF7860124B1A6816
:100F9000124B1B7819464FF47A73B3FBF1F3B2FB93
:100FA000F3F3184601F07BFA0346002B01D001232E
:100FB0000EE07B680F2B0AD8002279684FF0FF30D3
:100FC00001F043FA064A7B681360002300E0012326
:100FD00018460837BD4680BD0C00002004000020E4
:100FE0000000002080B400AF064B1B781A46064B69
:100FF0001B681344044A136000BFBD465DF8047BC0
:10100000704700BF040000203002002080B400AF11
:10101000034B1B681846BD465DF8047B704700BF54
:101020003002002080B584B000AF7860FFF7EEFF9B
:10103000B8607B68FB60FB68B3F1FF3F05D00A4BEB
:101040001B781A46FB681344FB6000BFFFF7DEFF06
:101050000246BB68D31AFA689A42F7D800BF00BFAD
:101060001037BD4680BD00BF0400002080B584B0AD
:1010700000AF78600023FB737B68002B01D1012354
:1010800033E07B681B6C002B09D1786804F01EFBF1
:101090007B6800225A647B68002283F83C207B68CE
:1010A0001B6C03F01003002B18D17B681B6C23F41E
:1010B000885323F0020343F002027B681A647868C5
:1010C00000F092FA7B6800225A647B681B6C23F064
:1010D000030343F001027B681A6401E00123FB7300
:1010E0007B68002283F83C20FB7B18461037BD4606
:1010F00080BD000080B485B000AF78600023BB6085
:101100007B6893F83C30012B01D10223A5E07B687A
:10111000012283F83C207B681B689B6803F0010375
:10112000012B18D07B681B689A687B681B6842F0AB
:1011300001029A604C4B1B684C4AA2FB03239A0C99
:1011400013465B001344BB6002E0BB68013BBB601D
:10115000BB68002BF9D17B681B689B6803F0010317
:10116000012B79D17B681B6C23F4E06323F001032E
:1011700043F480727B681A647B681B685B6803F4C5
:101180008063002B07D07B681B6C23F4405343F42F
:1011900080527B681A647B681B6C03F48053B3F540
:1011A000805F06D17B685B6C23F006027B685A6423
:1011B00002E07B6800225A647B68002283F83C20AE
:1011C0002B4BFB607B681B686FF022021A60FB6888
:1011D0005B6803F01F03002B2AD17B681B68254A3C
:1011E000934215D07B681B68234A934205D1204B5C
:1011F0005B6803F01F03002B0AD07B681B681F4A43
:10120000934229D11A4B5B6803F01003002B23D1C2
:101210007B681B689B6803F04053002B1CD17B68E4
:101220001B689A687B681B6842F080429A6013E0F2
:101230007B681B680F4A93420ED17B681B689B68D2
:1012400003F04053002B07D17B681B689A687B68CA
:101250001B6842F080429A60002318461437BD464E
:101260005DF8047B704700BF0C00002083DE1B4349
:1012700000230140002001400021014000220140E4
:1012800080B584B000AF786039600023FB607B6874
:101290001B689B6803F48063B3F5806F13D17B6890
:1012A0001B689B6803F48073B3F5807F0BD17B6868
:1012B0001B6C43F020027B681A647B68002283F871
:1012C0003C2001235CE0FFF7A1FEF8601AE03B68D8
:1012D000B3F1FF3F16D03B68002B07D0FFF796FE17
:1012E0000246FB68D31A3A689A420BD27B681B6CA1
:1012F00043F004027B681A647B68002283F83C2078
:1013000003233DE07B681B681B6803F00203022B8C
:10131000DDD17B681B686FF012021A607B681B6C62
:1013200043F400727B681A647B681B689B6803F057
:101330004053002B23D17B681B7E002B1FD17B6881
:101340001B68DB6A03F47003002B06D07B681B6804
:101350009B6803F48063002B11D17B681B6C23F422
:1013600080727B681A647B681B6C03F48053002BCB
:1013700005D17B681B6C43F001027B681A64002373
:1013800018461037BD4680BD80B483B000AF78608A
:101390007B681B68DB6C18460C37BD465DF8047B28
:1013A0007047000080B485B000AF786039600023DA
:1013B000BB607B6893F83C30012B01D1022305E12F
:1013C0007B68012283F83C203B681B68092B25D9E8
:1013D0007B681B68D9683B681B689BB21A4613463A
:1013E0005B0013441E3B072202FA03F3DA437B68D7
:1013F0001B680A40DA607B681B68D9683B689A689A
:101400003B681B689BB2184603465B0003441E3BC7
:101410009A407B681B680A43DA6022E07B681B689D
:1014200019693B681B689BB21A4613465B0013445C
:10143000072202FA03F3DA437B681B680A401A6149
:101440007B681B6819693B689A683B681B689BB29C
:10145000184603465B0003449A407B681B680A43B6
:101460001A613B685B68062B24D87B681B68596B44
:101470003B685A6813469B001344053B1F2202FA3F
:1014800003F3DA437B681B680A405A637B681B6876
:10149000596B3B681B689BB218463B685A681346F9
:1014A0009B001344053B00FA03F27B681B680A4368
:1014B0005A634CE03B685B680C2B24D87B681B6844
:1014C000196B3B685A6813469B001344233B1F2249
:1014D00002FA03F3DA437B681B680A401A637B68ED
:1014E0001B68196B3B681B689BB218463B685A68BF
:1014F00013469B001344233B00FA03F27B681B68EE
:101500000A431A6323E07B681B68D96A3B685A6800
:1015100013469B001344413B1F2202FA03F3DA43B4
:101520007B681B680A40DA627B681B68D96A3B6883
:101530001B689BB218463B685A6813469B001344CD
:10154000413B00FA03F27B681B680A43DA62224BD4
:10155000FB607B681B68214A934209D13B681B688A
:10156000122B05D1FB685B6843F48002FB685A606C
:101570007B681B68194A934223D13B681B68102B78
:1015800003D03B681B68112B1BD1FB685B6843F4DD
:101590000002FB685A603B681B68102B11D1104B8E
:1015A0001B68104AA2FB03239A0C13469B001344AA
:1015B0005B00BB6002E0BB68013BBB60BB68002B0B
:1015C000F9D17B68002283F83C20002318461437A9
:1015D000BD465DF8047B70470023014000200140B8
:1015E0000C00002083DE1B4380B485B000AF786020
:1015F000794BFB60FB685B6823F44032FB685A6000
:10160000FB685A687B685B681A43FB685A607B68B2
:101610001B685A687B681B6822F480725A607B687A
:101620001B6859687B681B691A027B681B680A4340
:101630005A607B681B685A687B681B6822F040729E
:101640005A607B681B6859687B689A687B681B686E
:101650000A435A607B681B689A687B681B6822F49F
:1016600000629A607B681B6899687B68DA687B68AF
:101670001B680A439A607B689B6A584A934222D04F
:101680007B681B689A687B681B6822F070629A60AE
:101690007B681B6899687B689A6A7B681B680A4349
:1016A0009A607B681B689A687B681B6822F04052CE
:1016B0009A607B681B6899687B68DA6A7B681B683C
:1016C0000A439A600FE07B681B689A687B681B6816
:1016D00022F070629A607B681B689A687B681B685E
:1016E00022F040529A607B681B689A687B681B688E
:1016F00022F002029A607B681B6899687B681B7EF7
:101700005A007B681B680A439A607B6893F8203014
:10171000002B1BD07B681B685A687B681B6842F4EF
:1017200000625A607B681B685A687B681B6822F4F9
:1017300060425A607B681B6859687B685B6A013B42
:101740005A037B681B680A435A6007E07B681B6882
:101750005A687B681B6822F400625A607B681B68C9
:10176000DA6A7B681B6822F47002DA627B681B68A5
:10177000D96A7B68DB69013B1A057B681B680A43F1
:10178000DA627B681B689A687B681B6822F40072C7
:101790009A607B681B6899687B6893F830305A02BE
:1017A0007B681B680A439A607B681B689A687B6841
:1017B0001B6822F480629A607B681B6899687B686A
:1017C0005B699A027B681B680A439A6000BF143702
:1017D000BD465DF8047B7047002301400100000F07
:1017E00080B584B000AF78607B68002B01D1012305
:1017F000EDE07B6893F82030DBB2002B02D17868F3
:1018000003F0C4FF7B681B681A687B681B6822F0C2
:1018100002021A60FFF7FAFBF86012E0FFF7F6FB2E
:101820000246FB68D31A0A2B0BD97B685B6A43F428
:1018300000327B685A627B68052283F820200123EE
:10184000C5E07B681B685B6803F00203002BE5D1F1
:101850007B681B681A687B681B6842F001021A608B
:10186000FFF7D4FBF86012E0FFF7D0FB0246FB68FD
:10187000D31A0A2B0BD97B685B6A43F400327B686E
:101880005A627B68052283F8202001239FE07B6851
:101890001B685B6803F00103002BE5D07B681B7EAF
:1018A000012B08D17B681B681A687B681B6842F0B3
:1018B00080021A6007E07B681B681A687B681B68F7
:1018C00022F080021A607B685B7E012B08D17B6866
:1018D0001B681A687B681B6842F040021A6007E0C8
:1018E0007B681B681A687B681B6822F040021A60DC
:1018F0007B689B7E012B08D17B681B681A687B681C
:101900001B6842F020021A6007E07B681B681A68B7
:101910007B681B6822F020021A607B68DB7E012B4B
:1019200008D17B681B681A687B681B6822F010026C
:101930001A6007E07B681B681A687B681B6842F0C6
:1019400010021A607B681B7F012B08D17B681B6823
:101950001A687B681B6842F008021A6007E07B681F
:101960001B681A687B681B6822F008021A607B6893
:101970005B7F012B08D17B681B681A687B681B683A
:1019800042F004021A6007E07B681B681A687B68F3
:101990001B6822F004021A607B689A687B68DB6827
:1019A0001A437B681B691A437B685B6942EA03013F
:1019B0007B685B685A1E7B681B680A43DA617B6838
:1019C00000225A627B68012283F8202000231846F7
:1019D0001037BD4680BD000080B487B000AF78608E
:1019E00039607B681B687B617B6893F82030FB74EF
:1019F000FB7C012B03D0FB7C022B40F0BE80654BAF
:101A00007B617B69D3F8003243F001027B69C3F844
:101A100000227B69D3F8003223F47C527B69C3F83F
:101A200000227B69D3F800223B685B6A1B021A43E1
:101A30007B69C3F800223B685B6903F01F03012246
:101A400002FA03F3FB607B69D3F81C22FB68DB43DB
:101A50001A407B69C3F81C223B68DB69002B23D149
:101A60007B69D3F80C22FB68DB431A407B69C3F81F
:101A70000C223B68DB6819043B685B689BB23A68E0
:101A8000526919437B69483243F832103B689B68BE
:101A900019043B681B689AB23B685B690A43796921
:101AA0004833DB000B445A603B68DB69012B22D1D1
:101AB0007B69D3F80C22FB681A437B69C3F80C22BC
:101AC0003B681B6819043B685B689BB23A685269C3
:101AD00019437B69483243F832103B689B6819040C
:101AE0003B68DB689AB23B685B690A4379694833B3
:101AF000DB000B445A603B689B69002B09D17B6972
:101B0000D3F80422FB68DB431A407B69C3F8042244
:101B100007E07B69D3F80422FB681A437B69C3F8AA
:101B200004223B681B69002B09D17B69D3F814227E
:101B3000FB68DB431A407B69C3F8142207E07B692A
:101B4000D3F81422FB681A437B69C3F814223B685C
:101B50001B6A012B07D17B69D3F81C22FB681A434F
:101B60007B69C3F81C227B69D3F8003223F00102A1
:101B70007B69C3F80022002306E07B685B6A43F4BC
:101B800080227B685A62012318461C37BD465DF8E7
:101B9000047B70470064004080B584B000AF78607B
:101BA0007B6893F82030DBB2012B2ED17B680222B8
:101BB00083F820207B681B681A687B681B6822F00A
:101BC00001021A60FFF722FAF86012E0FFF71EFA2E
:101BD0000246FB68D31A0A2B0BD97B685B6A43F475
:101BE00000327B685A627B68052283F8202001233B
:101BF00012E07B681B685B6803F00103002BE5D1F2
:101C00007B6800225A62002306E07B685B6A43F42B
:101C100000227B685A62012318461037BD4680BDFA
:101C200080B489B000AFF860B9607A603B60FB684F
:101C300093F82030FB77FB681B689B68BB61FB7FD8
:101C4000012B03D0FB7F022B40F0B880BB6903F06F
:101C50008063002B0AD1BB6903F00063002B05D120
:101C6000BB6903F08053002B00F0A080BB691B0E02
:101C700003F003037B617B69022B07D9FB685B6A76
:101C800043F40002FB685A6201239EE001227B6953
:101C90009A403B681A60BB689B68002B0DD1BB68FB
:101CA0001B685A05BB68DB68F96809681A437B69D9
:101CB00018331B010B441A600FE0BB685B68DA0045
:101CC000BB689B681A43BB68DB68F96809681A43FC
:101CD0007B6918331B010B441A60FB681968BB68E9
:101CE0001A697B6918331B010B4404331A60BB6803
:101CF0001B7D012B11D1FB681A687B6918331B010E
:101D0000134404331B68FA68116843F480727B69DA
:101D100018331B010B4404331A607B6807331B78AC
:101D20001A067B6806331B781B041A437B6805334D
:101D30001B781B0213437A68043212781046FA6843
:101D4000116843EA00027B691B010B4403F5C6736B
:101D50001A607B6803331B781A067B6802331B7892
:101D60001B041A437B6801331B781B0213437A68F8
:101D700012781046FA68116843EA00027B691B0179
:101D80000B4403F5C4731A60FB681A687B69183347
:101D90001B0113441B68FA68116843F001027B6958
:101DA00018331B010B441A6000230EE0FB685B6ACA
:101DB00043F40012FB685A62012306E0FB685B6A89
:101DC00043F48022FB685A62012318462437BD463B
:101DD0005DF8047B704780B485B000AF78603960EF
:101DE0007B6893F82030FB73FB7B012B02D0FB7BDD
:101DF000022B09D17B681B6859697B681B683A68AC
:101E00000A435A61002306E07B685B6A43F4802240
:101E10007B685A62012318461437BD465DF8047B7F
:101E2000704780B58AB000AF786000237B627B6822
:101E30001B685B693B627B681B685B68FB617B6856
:101E40001B689B68BB617B681B68DB687B617B6888
:101E50001B681B693B617B681B689B69FB603B6A75
:101E600003F00103002B7CD0BB6903F00103002BBE
:101E700023D07B681B6801229A60BB6903F00203D0
:101E8000002B03D0786800F083F916E0BB6903F0FB
:101E90000403002B04D07B6A43F400637B620CE0F4
:101EA000BB6903F00803002B04D07B6A43F4805322
:101EB0007B6202E0786800F089F9BB6903F4807303
:101EC000002B24D07B681B684FF480729A60BB693A
:101ED00003F40073002B03D0786800F063F916E078
:101EE000BB6903F48063002B04D07B6A43F4005386
:101EF0007B620CE0BB6903F40063002B04D07B6AB7
:101F000043F480437B6202E0786800F069F9BB69C2
:101F100003F48033002B24D07B681B684FF480329D
:101F20009A60BB6903F40033002B03D0786800F09B
:101F300043F916E0BB6903F48023002B04D07B6ACD
:101F400043F400437B620CE0BB6903F40023002BE5
:101F500004D07B6A43F480337B6202E0786800F04F
:101F600049F93B6A03F00803002B0CD07B6903F0AE
:101F70001003002B07D07B6A43F400737B627B68FD
:101F80001B681022DA603B6A03F00403002B0BD0BD
:101F90007B6903F00803002B06D07B681B680822CE
:101FA000DA60786800F03AF93B6A03F00203002B2C
:101FB00009D07B681B68DB6803F00303002B02D0A9
:101FC000786800F021F93B6A03F04003002B0CD045
:101FD0003B6903F01003002B07D07B6A43F4806356
:101FE0007B627B681B6810221A613B6A03F0200346
:101FF000002B0BD03B6903F00803002B06D07B6855
:102000001B6808221A61786800F01CF93B6A03F02B
:102010001003002B09D07B681B681B6903F00303C6
:10202000002B02D0786800F003F93B6A03F4003318
:10203000002B0BD0FB6903F01003002B06D07B684C
:102040001B6810225A60786800F006F93B6A03F4B6
:102050008033002B0BD0FB6903F00803002B06D064
:102060007B681B6808225A60786800F0FFF83B6ABA
:1020700003F40043002B7BD0FB6903F00403002B27
:1020800072D03B6A03F48073002B08D0FB6803F026
:102090000103002B03D07B6A43F001037B623B6AA0
:1020A00003F40073002B08D0FB6803F00203002B3D
:1020B00003D07B6A43F002037B623B6A03F48063D4
:1020C000002B08D0FB6803F00403002B03D07B6ACD
:1020D00043F004037B623B6A03F40063002B43D0AC
:1020E000FB6803F07003002B3ED0FB6803F0700325
:1020F000602B2BD0602B2ED8502B22D0502B2AD8DF
:10210000402B19D0402B26D8302B10D0302B22D882
:10211000102B02D0202B05D01DE07B6A43F0080372
:102120007B6219E07B6A43F010037B6214E07B6AF8
:1021300043F020037B620FE07B6A43F040037B6245
:102140000AE07B6A43F080037B6205E07B6A43F42C
:1021500080737B6200E000BF7B681B689A697B68C4
:102160001B6822F070029A617B681B6804225A6027
:102170007B6A002B08D07B685A6A7B6A1A437B68AB
:102180005A62786800F07CF800BF2837BD4680BDF1
:1021900080B483B000AF786000BF0C37BD465DF8F7
:1021A000047B704780B483B000AF786000BF0C3709
:1021B000BD465DF8047B704780B483B000AF7860A3
:1021C00000BF0C37BD465DF8047B704780B483B018
:1021D00000AF786000BF0C37BD465DF8047B7047E8
:1021E00080B483B000AF786000BF0C37BD465DF8A7
:1021F000047B704780B483B000AF786000BF0C37B9
:10220000BD465DF8047B704780B483B000AF786052
:1022100000BF0C37BD465DF8047B704780B483B0C7
:1022200000AF786000BF0C37BD465DF8047B704797
:1022300080B483B000AF786000BF0C37BD465DF856
:10224000047B704780B483B000AF786000BF0C3768
:10225000BD465DF8047B704780B483B000AF786002
:1022600000BF0C37BD465DF8047B704780B483B077
:1022700000AF786000BF0C37BD465DF8047B704747
:1022800080B483B000AF786000BF0C37BD465DF806
:10229000047B704780B485B000AF78607B6803F042
:1022A0000703FB600C4BDB68BB60BA684FF6FF03AB
:1022B0001340BB60FB681A02BB68134343F0BF6363
:1022C00043F40033BB60044ABB68D36000BF1437DB
:1022D000BD465DF8047B704700ED00E080B400AFC0
:1022E000044BDB681B0A03F007031846BD465DF884
:1022F000047B704700ED00E080B483B000AF03467C
:10230000FB7197F90730002B0BDBFB7903F01F0201
:10231000074997F907305B09012000FA02F241F8FA
:10232000232000BF0C37BD465DF8047B704700BF1B
:1023300000E100E080B483B000AF03463960FB7178
:1023400097F90730002B0ADB3B68DAB20C4997F9A2
:1023500007301201D2B20B4483F800230AE03B6835
:10236000DAB20849FB7903F00F03043B1201D2B241
:102370000B441A7600BF0C37BD465DF8047B7047EE
:1023800000E100E000ED00E080B489B000AFF8604B
:10239000B9607A60FB6803F00703FB61FB69C3F176
:1023A0000703042B28BF0423BB61FB690433062BFE
:1023B00002D9FB69033B00E000237B614FF0FF3251
:1023C000BB6902FA03F3DA43BB681A407B699A409F
:1023D0004FF0FF317B6901FA03F3D9437B680B406F
:1023E000134318462437BD465DF8047B7047000050
:1023F00080B582B000AF78607B68013BB3F1807F2D
:1024000001D301230FE00A4A7B68013B53600F218F
:102410004FF0FF30FFF78EFF054B00229A60044B10
:1024200007221A60002318460837BD4680BD00BF4A
:1024300010E000E080B582B000AF78607868FFF708
:1024400029FF00BF0837BD4680BD80B586B000AF0C
:102450000346B9607A60FB7300237B61FFF73EFFA0
:1024600078617A68B9687869FFF78EFF024697F954
:102470000F3011461846FFF75DFF00BF1837BD4605
:1024800080BD80B582B000AF0346FB7197F907307D
:102490001846FFF731FF00BF0837BD4680BD80B545
:1024A00082B000AF78607868FFF7A2FF0346184655
:1024B0000837BD4680BD000080B489B000AF7860A9
:1024C000396000237B6100233B610023BB61002353
:1024D000FB616BE10122FB6902FA03F37B613B685C
:1024E0001B687A6913403B613A697B699A4240F004
:1024F0005A813B685B68012B0BD03B685B68022B01
:1025000007D03B685B68112B03D03B685B68122BDC
:1025100030D17B689B68BB61FB695B00032202FAD8
:1025200003F3DB43BA691340BB613B68DA68FB69BC
:102530005B0002FA03F3BA691343BB617B68BA69B3
:102540009A607B685B68BB610122FB6902FA03F356
:10255000DB43BA691340BB613B685B681B0903F04E
:102560000102FB6902FA03F3BA691343BB617B689A
:10257000BA695A607B68DB68BB61FB695B00032258
:1025800002FA03F3DB43BA691340BB613B689A6804
:10259000FB695B0002FA03F3BA691343BB617B6812
:1025A000BA69DA603B685B68022B03D03B685B6802
:1025B000122B23D1FB69DA087B68083253F82230EA
:1025C000BB61FB6903F007039B000F2202FA03F3D0
:1025D000DB43BA691340BB613B681A69FB6903F0CE
:1025E00007039B0002FA03F3BA691343BB61FB695B
:1025F000DA087B680832B96943F822107B681B68E7
:10260000BB61FB695B00032202FA03F3DB43BA6997
:102610001340BB613B685B6803F00302FB695B002E
:1026200002FA03F3BA691343BB617B68BA691A60A3
:102630003B685B6803F08053002B00F0B4800023FC
:10264000FB60604B5B6C5F4A43F4804353645D4BBB
:102650005B6C03F48043FB60FB685B4AFB699B088F
:10266000023352F82330BB61FB6903F003039B0084
:102670000F2202FA03F3DB43BA691340BB617B68A4
:10268000524A93422BD07B68514A934225D07B68B3
:10269000504A93421FD07B684F4A934219D07B68BF
:1026A0004E4A934213D07B684D4A93420DD07B68CB
:1026B0004C4A934207D07B684B4A934201D107238F
:1026C0000EE008230CE006230AE0052308E00423BB
:1026D00006E0032304E0022302E0012300E00023DC
:1026E000FA6902F0030292009340BA691343BB6196
:1026F0003549FB699B080233BA6941F823203B4BFB
:102700001B68BB613B69DB43BA691340BB613B6833
:102710005B6803F48033002B03D0BA693B69134331
:10272000BB61324ABB691360304B5B68BB613B697C
:10273000DB43BA691340BB613B685B6803F4003359
:10274000002B03D0BA693B691343BB61274ABB69BD
:102750005360264B9B68BB613B69DB43BA691340FE
:10276000BB613B685B6803F48013002B03D0BA693C
:102770003B691343BB611D4ABB6993601B4BDB681C
:10278000BB613B69DB43BA691340BB613B685B6873
:1027900003F40013002B03D0BA693B691343BB61F8
:1027A000124ABB69D360FB690133FB61FB690F2BE4
:1027B0007FF690AE00BF00BF2437BD465DF8047BB6
:1027C000704700BF0038024000380140000002405E
:1027D0000004024000080240000C024000100240C9
:1027E0000014024000180240001C0240003C01405E
:1027F00080B485B000AF78600B467B807B681A6937
:102800007B881340002B02D00123FB7301E00023DF
:10281000FB73FB7B18461437BD465DF8047B70479D
:1028200080B483B000AF78600B467B8013467B702A
:102830007B78002B03D07A887B689A6103E07B88E1
:102840001A047B689A6100BF0C37BD465DF8047BB3
:102850007047000080B584B000AF78607B68002BC3
:1028600001D101232BE17B6893F83D30DBB2002BD3
:1028700006D17B68002283F83C20786802F0D6FFFE
:102880007B68242283F83D207B681B681A687B687C
:102890001B6822F001021A607B681B681A687B685B
:1028A0001B6842F400421A607B681B681A687B68E8
:1028B0001B6822F400421A6001F0A6FBF8607B68F6
:1028C0005B68814A934207D8FB68804A934294BF71
:1028D00001230023DBB206E0FB687D4A934294BFEC
:1028E00001230023DBB2002B01D00123E7E0FB68CA
:1028F000784AA2FB03239B0CBB607B681B685B6868
:1029000023F03F017B681B68BA680A435A607B6802
:102910001B681B6A23F03F017B685B686A4A93422D
:1029200002D8BB68013309E0BB684FF4967202FB22
:1029300003F3694AA2FB03239B0901337A681268F7
:102940000B4313627B681B68DB6923F44F4222F060
:10295000FF027B685B685C498B4219D8FB68591E93
:102960007B685B685B00B1FBF3F3591C40F6FC73BA
:102970000B40002B0AD0FB68591E7B685B685B002C
:10298000B1FBF3F30133C3F30B0351E004234FE036
:102990007B689B68002B11D1FB68581E7B685968C7
:1029A0000B465B000B44B0FBF3F30133C3F30B03A3
:1029B000002B0CBF01230023DBB212E0FB68581E82
:1029C0007B6859680B469B000B4499000B44B0FB95
:1029D000F3F30133C3F30B03002B0CBF01230023DC
:1029E000DBB2002B01D0012322E07B689B68002B27
:1029F0000ED1FB68581E7B6859680B465B000B4480
:102A0000B0FBF3F30133C3F30B0343F400430FE0D4
:102A1000FB68581E7B6859680B469B000B44990065
:102A20000B44B0FBF3F30133C3F30B0343F4404314
:102A3000796809681343CB617B681B681B6823F0C6
:102A4000C0017B68DA697B681B6A1A437B681B6874
:102A50000A431A607B681B689B6823F4034323F0D6
:102A6000FF037A6811697A68D26811437A6812683C
:102A70000B4393607B681B68DB6823F0FF017B6876
:102A80005A697B689B691A437B681B680A43DA6052
:102A90007B681B681A687B681B6842F001021A6039
:102AA0007B6800221A647B68202283F83D207B68C3
:102AB00000221A637B68002283F83E200023184618
:102AC0001037BD4680BD00BFA08601007F841E0078
:102AD000FF083D0083DE1B43D34D621080B588B0F4
:102AE00002AFF8607A601A460B467B8113463B8141
:102AF000FEF78CFA7861FB6893F83D30DBB2202B4F
:102B000040F0E0807B690093192301227049F86846
:102B100000F058FC0346002B01D00223D3E0FB68F1
:102B200093F83C30012B01D10223CCE0FB68012259
:102B300083F83C20FB681B681B6803F00103012B32
:102B400007D0FB681B681A68FB681B6842F001022B
:102B50001A60FB681B681A68FB681B6822F4006235
:102B60001A60FB68212283F83D20FB68102283F85D
:102B70003E20FB6800221A64FB687A685A62FB6890
:102B80003A895A85FB685B8D9AB2FB681A85FB68A7
:102B9000504ADA6279897B693A6AF86800F0C2FAC9
:102BA0000346002B01D001238DE000233B61FB682D
:102BB0001B685B693B61FB681B689B693B613B6908
:102BC00066E07A69396AF86800F0D2FC0346002BA7
:102BD0000DD0FB681B6C042B07D1FB681B681A68BF
:102BE000FB681B6842F400721A6001236BE0FB680B
:102BF0005B6A1A78FB681B681A61FB685B6A5A1C7F
:102C0000FB685A62FB685B8D9BB2013B9AB2FB6822
:102C10005A85FB681B8D013B9AB2FB681A85FB68DD
:102C20001B685B6903F00403042B1BD1FB681B8D3D
:102C3000002B17D0FB685B6A1A78FB681B681A6167
:102C4000FB685B6A5A1CFB685A62FB685B8D9BB22F
:102C5000013B9AB2FB685A85FB681B8D013B9AB217
:102C6000FB681A857A69396AF86800F0C2FC034685
:102C7000002B0DD0FB681B6C042B07D1FB681B6875
:102C80001A68FB681B6842F400721A6001231AE09C
:102C9000FB681B8D002B94D1FB681B681A68FB68CE
:102CA0001B6842F400721A60FB68202283F83D2002
:102CB000FB68002283F83E20FB68002283F83C205A
:102CC000002300E0022318461837BD4680BD00BF30
:102CD000020010000000FFFF80B58CB002AFF8606A
:102CE0007A601A460B467B8113463B81FEF78EF9CC
:102CF0007862FB6893F83D30DBB2202B40F00B820A
:102D00007B6A0093192301227C49F86800F05AFB82
:102D10000346002B01D00223FEE1FB6893F83C3010
:102D2000012B01D10223F7E1FB68012283F83C204B
:102D3000FB681B681B6803F00103012B07D0FB68CD
:102D40001B681A68FB681B6842F001021A60FB6886
:102D50001B681A68FB681B6822F400621A60FB6833
:102D6000222283F83D20FB68102283F83E20FB6876
:102D700000221A64FB687A685A62FB683A895A85AD
:102D8000FB685B8D9AB2FB681A85FB685C4ADA6265
:102D900079897B6A3A6BF86800F046FA0346002BA3
:102DA00001D00123B8E1FB681B8D002B13D1002358
:102DB0003B62FB681B685B693B62FB681B689B6945
:102DC0003B623B6AFB681B681A68FB681B6842F43D
:102DD00000721A608CE1FB681B8D012B1BD1FB6814
:102DE0001B681A68FB681B6822F480621A60002363
:102DF000FB61FB681B685B69FB61FB681B689B6987
:102E0000FB61FB69FB681B681A68FB681B6842F47E
:102E100000721A606CE1FB681B8D022B1BD1FB68F2
:102E20001B681A68FB681B6822F480621A60FB68E2
:102E30001B681A68FB681B6842F400621A60002372
:102E4000BB61FB681B685B69BB61FB681B689B69B6
:102E5000BB61BB694CE1FB681B681A68FB681B68B7
:102E600042F480621A6000237B61FB681B685B6927
:102E70007B61FB681B689B697B617B6938E1FB6850
:102E80001B8D032B00F2F180FB681B8D012B23D1DE
:102E90007A6A396BF86800F0EDFB0346002B01D02D
:102EA000012339E1FB681B681A69FB685B6AD2B2CF
:102EB0001A70FB685B6A5A1CFB685A62FB681B8DC0
:102EC000013B9AB2FB681A85FB685B8D9BB2013BA4
:102ED0009AB2FB685A850BE1FB681B8D022B4ED121
:102EE0007B6A00933B6B00220649F86800F06AFA9F
:102EF0000346002B08D001230EE100BF02001000A2
:102F00000000FFFF04000100FB681B681A68FB68F3
:102F10001B6842F400721A60FB681B681A69FB6840
:102F20005B6AD2B21A70FB685B6A5A1CFB685A6211
:102F3000FB681B8D013B9AB2FB681A85FB685B8DB1
:102F40009BB2013B9AB2FB685A85FB681B681A6901
:102F5000FB685B6AD2B21A70FB685B6A5A1CFB683A
:102F60005A62FB681B8D013B9AB2FB681A85FB68AD
:102F70005B8D9BB2013B9AB2FB685A85B8E07B6AD5
:102F800000933B6B00226649F86800F01BFA034689
:102F9000002B01D00123BFE0FB681B681A68FB68A7
:102FA0001B6822F480621A60FB681B681A69FB6860
:102FB0005B6AD2B21A70FB685B6A5A1CFB685A6281
:102FC000FB681B8D013B9AB2FB681A85FB685B8D21
:102FD0009BB2013B9AB2FB685A857B6A00933B6BBC
:102FE00000224F49F86800F0EDF90346002B01D0AC
:102FF000012391E0FB681B681A68FB681B6842F4B8
:1030000000721A60FB681B681A69FB685B6AD2B2BF
:103010001A70FB685B6A5A1CFB685A62FB681B8D5E
:10302000013B9AB2FB681A85FB685B8D9BB2013B42
:103030009AB2FB685A85FB681B681A69FB685B6A71
:10304000D2B21A70FB685B6A5A1CFB685A62FB6852
:103050001B8D013B9AB2FB681A85FB685B8D9BB2A6
:10306000013B9AB2FB685A8542E07A6A396BF8688C
:1030700000F000FB0346002B01D001234CE0FB686D
:103080001B681A69FB685B6AD2B21A70FB685B6ADC
:103090005A1CFB685A62FB681B8D013B9AB2FB68A5
:1030A0001A85FB685B8D9BB2013B9AB2FB685A851F
:1030B000FB681B685B6903F00403042B18D1FB68F1
:1030C0001B681A69FB685B6AD2B21A70FB685B6A9C
:1030D0005A1CFB685A62FB681B8D013B9AB2FB6865
:1030E0001A85FB685B8D9BB2013B9AB2FB685A85DF
:1030F000FB681B8D002B7FF4C2AEFB68202283F897
:103100003D20FB68002283F83E20FB68002283F804
:103110003C20002300E0022318462837BD4680BD2E
:103120000400010080B588B002AFF8607A603B60AF
:103130000B467B81FB68DB6A7B617B69082B06D0D1
:103140007B69012B03D07B6913F5803F08D1FB68B5
:103150001B681A68FB681B6842F480721A600BE0F7
:10316000FB681B6B122B07D1FB681B681A68FB6896
:103170001B6842F480721A603B6800937B680022EF
:103180004FF00111F86800F01DF90346002B0DD037
:10319000FB681B681B6803F48073B3F5807F03D161
:1031A000FB684FF400721A64032335E0FB681B6967
:1031B000B3F5804F08D17B89DBB21A46FB681B68E8
:1031C00002F0FE021A611BE07B89DB11DBB203F027
:1031D0000603DBB263F00F03DAB2FB681B681A6107
:1031E0003B687A680E49F86800F043F90346002B03
:1031F00001D0012310E07B89DAB2FB681B681A61F9
:103200003B687A680749F86800F033F90346002BF9
:1032100001D0012300E0002318461837BD4680BDC9
:10322000080001000200010080B588B002AFF8601C
:103230007A603B600B467B81FB68DB6A7B61FB68E5
:103240001B681A68FB681B6842F480621A607B691D
:10325000082B06D07B69012B03D07B6913F5803FD7
:1032600008D1FB681B681A68FB681B6842F480720F
:103270001A600BE0FB681B6B112B07D1FB681B6806
:103280001A68FB681B6842F480721A603B680093FE
:103290007B6800224FF00111F86800F093F80346B4
:1032A000002B0DD0FB681B681B6803F48073B3F51B
:1032B000807F03D1FB684FF400721A64032379E026
:1032C000FB681B69B3F5804F08D17B89DBB243F003
:1032D0000103DAB2FB681B681A615FE07B89DB11CE
:1032E000DBB203F00603DBB263F00F03DAB2FB6874
:1032F0001B681A613B687A683049F86800F0B9F8D1
:103300000346002B01D0012354E07B89DAB2FB682D
:103310001B681A613B687A682949F86800F0A9F8C7
:103320000346002B01D0012344E000233B61FB68EE
:103330001B685B693B61FB681B689B693B613B6980
:10334000FB681B681A68FB681B6842F480721A608D
:103350003B6800937B6800224FF00111F86800F091
:1033600031F80346002B0DD0FB681B681B6803F483
:103370008073B3F5807F03D1FB684FF400721A6449
:10338000032317E07B89DB11DBB203F00603DBB21A
:1033900063F00E03DAB2FB681B681A613B687A6857
:1033A0000749F86800F065F80346002B01D00123B7
:1033B00000E0002318461837BD4680BD0800010014
:1033C0000200010080B584B000AFF860B9603B60D6
:1033D0001346FB7125E03B68B3F1FF3F21D0FDF7B9
:1033E00015FE0246BB69D31A3A689A4202D33B687B
:1033F000002B16D1FB6800221A63FB68202283F899
:103400003D20FB68002283F83E20FB681B6C43F0E4
:103410002002FB681A64FB68002283F83C20012329
:1034200023E0BB681B0CDBB2012B0DD1FB681B68D2
:103430005B69DA43BB6813409BB2002B0CBF0123CE
:103440000023DBB21A460CE0FB681B689B69DA4379
:10345000BB6813409BB2002B0CBF01230023DBB2DF
:103460001A46FB799A42B6D0002318461037BD465B
:1034700080BD80B584B000AFF860B9607A603B6011
:1034800051E0FB681B685B6903F48063B3F5806FF0
:1034900023D1FB681B681A68FB681B6842F4007242
:1034A0001A60FB681B686FF480625A61FB68002237
:1034B0001A63FB68202283F83D20FB68002283F812
:1034C0003E20FB681B6C43F00402FB681A64FB6837
:1034D000002283F83C20012346E07B68B3F1FF3FE4
:1034E00021D0FDF793FD02463B68D31A7A689A42D1
:1034F00002D37B68002B16D1FB6800221A63FB689D
:10350000202283F83D20FB68002283F83E20FB68E0
:103510001B6C43F02002FB681A64FB68002283F8EE
:103520003C20012320E0BB681B0CDBB2012B0CD13B
:10353000FB681B685B69DA43BB6813409BB2002BD6
:1035400014BF01230023DBB20BE0FB681B689B69FF
:10355000DA43BB6813409BB2002B14BF0123002346
:10356000DBB2002B8DD1002318461037BD4680BD3D
:1035700080B584B000AFF860B9607A602DE0F8687B
:1035800000F0CEF80346002B01D001232DE0BB68EC
:10359000B3F1FF3F21D0FDF739FD02467B68D31A16
:1035A000BA689A4202D3BB68002B16D1FB6800228E
:1035B0001A63FB68202283F83D20FB68002283F811
:1035C0003E20FB681B6C43F02002FB681A64FB681A
:1035D000002283F83C20012307E0FB681B685B693D
:1035E00003F08003802BCAD1002318461037BD4654
:1035F00080BD80B584B000AFF860B9607A602DE01E
:10360000F86800F08DF80346002B01D001232DE06F
:10361000BB68B3F1FF3F21D0FDF7F8FC02467B68A1
:10362000D31ABA689A4202D3BB68002B16D1FB6842
:1036300000221A63FB68202283F83D20FB680022E9
:1036400083F83E20FB681B6C43F02002FB681A6481
:10365000FB68002283F83C20012307E0FB681B681D
:103660005B6903F00403042BCAD10023184610370A
:10367000BD4680BD80B584B000AFF860B9607A60A7
:1036800042E0FB681B685B6903F01003102B19D143
:10369000FB681B686FF010025A61FB6800221A6316
:1036A000FB68202283F83D20FB68002283F83E203F
:1036B000FB681A6CFB681A64FB68002283F83C20E4
:1036C000012329E0FDF7A2FC02467B68D31ABA6801
:1036D0009A4202D3BB68002B16D1FB6800221A6302
:1036E000FB68202283F83D20FB68002283F83E20FF
:1036F000FB681B6C43F02002FB681A64FB68002225
:1037000083F83C20012307E0FB681B685B6903F03A
:103710004003402BB5D1002318461037BD4680BD6D
:1037200080B483B000AF78607B681B685B6903F48A
:103730008063B3F5806F1BD17B681B686FF4806278
:103740005A617B6800221A637B68202283F83D203F
:103750007B68002283F83E207B681B6C43F00402E8
:103760007B681A647B68002283F83C20012300E018
:10377000002318460C37BD465DF8047B70470000F7
:1037800080B586B000AF78607B68002B01D1012343
:103790005BE27B681B6803F00103002B75D0A34B31
:1037A0009B6803F00C03042B0CD0A04B9B6803F028
:1037B0000C03082B12D19D4B5B6803F48003B3F517
:1037C000800F0BD1994B1B6803F40033002B5BD0A7
:1037D0007B685B68002B57D1012336E27B685B680E
:1037E000B3F5803F06D1914B1B68904A43F4803378
:1037F00013601DE07B685B68B3F5A02F0CD18B4B89
:103800001B688A4A43F480231360884B1B68874AED
:1038100043F4803313600BE0844B1B68834A23F42A
:1038200080331360814B1B68804A23F4802313602C
:103830007B685B68002B13D0FDF7E8FB386108E07C
:10384000FDF7E4FB02463B69D31A642B01D903233D
:10385000FBE1764B1B6803F40033002BF0D014E03F
:10386000FDF7D4FB386108E0FDF7D0FB02463B6969
:10387000D31A642B01D90323E7E16C4B1B6803F4D3
:103880000033002BF0D100E000BF7B681B6803F021
:103890000203002B63D0654B9B6803F00C03002BE5
:1038A0000BD0624B9B6803F00C03082B1CD15F4BC1
:1038B0005B6803F48003002B16D15C4B1B6803F09C
:1038C0000203002B05D07B68DB68012B01D00123AC
:1038D000BBE1564B1B6823F0F8027B681B69DB00D9
:1038E000524913430B603AE07B68DB68002B20D021
:1038F0004F4B01221A60FDF789FB386108E0FDF7A4
:1039000085FB02463B69D31A022B01D903239CE1B4
:10391000464B1B6803F00203002BF0D0434B1B689F
:1039200023F0F8027B681B69DB00404913430B60FE
:1039300015E03F4B00221A60FDF768FB386108E094
:10394000FDF764FB02463B69D31A022B01D903231E
:103950007BE1364B1B6803F00203002BF0D17B6840
:103960001B6803F00803002B30D07B685B69002BD9
:1039700016D0304B01221A60FDF748FB386108E091
:10398000FDF744FB02463B69D31A022B01D90323FE
:103990005BE1264B5B6F03F00203002BF0D015E0D8
:1039A000244B00221A60FDF731FB386108E0FDF777
:1039B0002DFB02463B69D31A022B01D9032344E1B4
:1039C0001A4B5B6F03F00203002BF0D17B681B687E
:1039D00003F00403002B00F0A0800023FB75134BC1
:1039E0001B6C03F08053002B0FD10023BB600F4BE7
:1039F0001B6C0E4A43F0805313640C4B1B6C03F09A
:103A00008053BB60BB680123FB750B4B1B6803F441
:103A10008073002B21D1084B1B68074A43F4807345
:103A20001360FDF7F3FA386111E000BF003802407F
:103A300000004742800E474200700040FDF7E6FA62
:103A400002463B69D31A022B01D90323FDE0814BC7
:103A50001B6803F48073002BF0D07B689B68012BFC
:103A600006D17D4B1B6F7C4A43F0010313671CE0BA
:103A70007B689B68052B0CD1774B1B6F764A43F014
:103A800004031367744B1B6F734A43F001031367FE
:103A90000BE0714B1B6F704A23F0010313676E4BF1
:103AA0001B6F6D4A23F0040313677B689B68002B30
:103AB00015D0FDF7ABFA38610AE0FDF7A7FA024628
:103AC0003B69D31A41F28832934201D90323BCE007
:103AD000614B1B6F03F00203002BEED014E0FDF7E7
:103AE00095FA38610AE0FDF791FA02463B69D31A6C
:103AF00041F28832934201D90323A6E0564B1B6F53
:103B000003F00203002BEED1FB7D012B05D1524BBC
:103B10001B6C514A23F0805313647B689B69002B14
:103B200000F092804C4B9B6803F00C03082B5CD098
:103B30007B689B69022B41D1484B00221A60FDF73C
:103B400065FA386108E0FDF761FA02463B69D31A6D
:103B5000022B01D9032378E03F4B1B6803F000736D
:103B6000002BF0D17B68DA697B681B6A1A437B689B
:103B70005B6A9B011A437B689B6A5B08013B1B04E1
:103B80001A437B68DB6A1B06334913434B60334B94
:103B900001221A60FDF73AFA386108E0FDF736FABB
:103BA00002463B69D31A022B01D903234DE02A4B6D
:103BB0001B6803F00073002BF0D045E0274B002278
:103BC0001A60FDF723FA386108E0FDF71FFA024694
:103BD0003B69D31A022B01D9032336E01E4B1B6825
:103BE00003F00073002BF0D12EE07B689B69012B62
:103BF00001D1012329E0184B5B68FB60FB6803F4EB
:103C000080027B68DB699A421CD1FB6803F03F02AB
:103C10007B681B6A9A4215D1FA6847F6C073134055
:103C20007A68526A93420DD1FB6803F440327B6894
:103C30009B6A9A4206D1FB6803F070627B68DB6A7C
:103C40009A4201D0012300E0002318461837BD46F0
:103C500080BD00BF00700040003802406000474255
:103C600080B584B000AF786039607B68002B01D1EB
:103C70000123CCE0684B1B6803F00F033A689A42BB
:103C80000CD9654B3A68D2B21A70634B1B6803F0CB
:103C90000F033A689A4201D00123B8E07B681B68A1
:103CA00003F00203002B20D07B681B6803F00403A1
:103CB000002B05D0594B9B68584A43F4E05393605E
:103CC0007B681B6803F00803002B05D0534B9B68EF
:103CD000524A43F460439360504B9B6823F0F002D8
:103CE0007B689B684D4913438B607B681B6803F0BE
:103CF0000103002B44D07B685B68012B07D1474B45
:103D00001B6803F40033002B19D101237FE07B688B
:103D10005B68022B03D07B685B68032B07D13F4BAA
:103D20001B6803F00073002B09D101236FE03B4BAC
:103D30001B6803F00203002B01D1012367E0374B1E
:103D40009B6823F003027B685B68344913438B60F4
:103D5000FDF75CF9F8600AE0FDF758F90246FB68E8
:103D6000D31A41F28832934201D903234FE02B4BFF
:103D70009B6803F00C027B685B689B009A42EBD166
:103D8000254B1B6803F00F033A689A420CD2224B72
:103D90003A68D2B21A70204B1B6803F00F033A68DE
:103DA0009A4201D0012332E07B681B6803F00403D0
:103DB000002B08D0194B9B6823F4E0527B68DB682A
:103DC000164913438B607B681B6803F00803002BC4
:103DD00009D0124B9B6823F460427B681B69DB00AF
:103DE0000E4913438B6000F021F802460B4B9B6891
:103DF0001B0903F00F030A49CB5C22FA03F3094ABB
:103E00001360094B1B681846FDF7BCF800231846E1
:103E10001037BD4680BD00BF003C02400038024064
:103E2000C08D00080C000020000000202DE9B043E8
:103E300084B000AF00237B600023FB6000233B6065
:103E40000023BB60674B9B6803F00C03082B0DD06D
:103E5000082B00F2BD80002B02D0042B03D0B7E06A
:103E6000614BBB60B7E0614BBB60B4E05D4B5B682E
:103E700003F03F037B605B4B5B6803F48003002B24
:103E80004DD0584B5B689B091A464FF0000340F237
:103E9000FF104FF0000102EA000803EA0109404662
:103EA00049464FF000024FF000034B0143EAD06354
:103EB000420110461946B0EB080061EB09014FF0D2
:103EC00000024FF000038B0143EA90638201121A53
:103ED00063EB01034FF000004FF00001D90041EA0D
:103EE0005271D00002460B4612EB080243EB090365
:103EF0004FF000004FF00001590241EAD251500248
:103F000002460B46104619467B681A464FF00003DE
:103F1000FCF79AFE02460B461346FB604AE0314B23
:103F20005B689B091A464FF0000340F2FF104FF008
:103F3000000102EA000403EA0105204629464FF089
:103F400000024FF000034B0143EAD06342011046E8
:103F50001946001B61EB05014FF000024FF0000312
:103F60008B0143EA90638201121A63EB01034FF065
:103F700000004FF00001D90041EA5271D000024622
:103F80000B46121945EB03034FF000004FF0000100
:103F9000990241EA9251900202460B461046194698
:103FA0007B681A464FF00003FCF74EFE02460B46B4
:103FB0001346FB600B4B5B681B0C03F003030133E0
:103FC0005B003B60FA683B68B2FBF3F3BB6002E066
:103FD000054BBB6000BFBB6818461037BD46BDE847
:103FE000B08300BF003802400024F40000127A00C1
:103FF00080B400AF034B1B681846BD465DF8047BD8
:10400000704700BF0C00002080B500AFFFF7F0FF45
:104010000246054B9B689B0A03F007030349CB5CF0
:1040200022FA03F3184680BD00380240D08D000804
:1040300080B582B000AF78607B68002B01D101238E
:104040001DE07B6893F83D30DBB2002B06D17B6826
:10405000002283F83C20786801F030FC7B68022263
:1040600083F83D207B681A687B6804331946104644
:1040700000F006FA7B68012283F83D2000231846F1
:104080000837BD4680BD80B582B000AF78607B68E0
:10409000002B01D101231DE07B6893F83D30DBB29A
:1040A000002B06D17B68002283F83C20786800F062
:1040B00015F87B68022283F83D207B681A687B68CC
:1040C00004331946104600F0DBF97B68012283F8BF
:1040D0003D20002318460837BD4680BD80B483B01C
:1040E00000AF786000BF0C37BD465DF8047B7047B9
:1040F00080B584B000AF786039607B681B680122AE
:104100003968184600F0A6FC7B681B68154A934284
:1041100004D07B681B68144A934201D1012300E05C
:104120000023002B07D07B681B685A6C7B681B68D8
:1041300042F400425A647B681B689B6803F00703E3
:10414000FB60FB68062B07D07B681B681A687B68DE
:104150001B6842F001021A60002318461037BD4662
:1041600080BD00BF000001400004014080B584B064
:1041700000AFF860B9607A60FB6893F83C30012BBF
:1041800001D10223B4E0FB68012283F83C20FB68E4
:10419000022283F83D207B680C2B00F29F8001A255
:1041A00052F823F0D9410008DD420008DD42000842
:1041B000DD42000819420008DD420008DD42000827
:1041C000DD4200085B420008DD420008DD420008D5
:1041D000DD4200089B420008FB681B68B96818466E
:1041E00000F0EEF9FB681B689A69FB681B6842F0F7
:1041F00008029A61FB681B689A69FB681B6822F0D9
:1042000004029A61FB681B689969BB681A69FB68BC
:104210001B680A439A6162E0FB681B68B96818462C
:1042200000F03EFAFB681B689A69FB681B6842F461
:1042300000629A61FB681B689A69FB681B6822F43C
:1042400080629A61FB681B689969BB681B691A02E6
:10425000FB681B680A439A6141E0FB681B68B96808
:10426000184600F093FAFB681B68DA69FB681B6864
:1042700042F00802DA61FB681B68DA69FB681B68B8
:1042800022F00402DA61FB681B68D969BB681A690D
:10429000FB681B680A43DA6121E0FB681B68B968A8
:1042A000184600F0E7FAFB681B68DA69FB681B68D0
:1042B00042F40062DA61FB681B68DA69FB681B681C
:1042C00022F48062DA61FB681B68D969BB681B69EC
:1042D0001A02FB681B680A43DA6100E000BFFB6852
:1042E000012283F83D20FB68002283F83C20002354
:1042F00018461037BD4680BD80B584B000AF7860E9
:1043000039607B6893F83C30012B01D10223B3E084
:104310007B68012283F83C207B68022283F83D20E1
:104320007B681B689B68FB60FB6823F07703FB607E
:10433000FB6823F47F43FB607B681B68FA689A6024
:104340003B681B68B3F5005F3ED0B3F5005F00F239
:104350008780B3F5805F00F08580B3F5805F7FD8FC
:10436000702B1AD0702B7BD8602B50D0602B77D855
:10437000502B3CD0502B73D8402B58D0402B6FD8AB
:10438000302B64D0302B6BD8202B60D0202B67D8FB
:10439000002B5CD0102B5AD062E07B6818683B6819
:1043A00099683B685A683B68DB6800F033FB7B68C0
:1043B0001B689B68FB60FB6843F07703FB607B68CE
:1043C0001B68FA689A604EE07B6818683B689968D9
:1043D0003B685A683B68DB6800F01CFB7B681B6825
:1043E0009A687B681B6842F480429A603BE07B6875
:1043F00018683B6859683B68DB681A4600F090FA19
:104400007B681B685021184600F0E9FA2BE07B68B6
:1044100018683B6859683B68DB681A4600F0AFFAD9
:104420007B681B686021184600F0D9FA1BE07B68A6
:1044300018683B6859683B68DB681A4600F070FAF8
:104440007B681B684021184600F0C9FA0BE07B68C6
:104450001A683B681B681946104600F0C0FA02E073
:1044600000BF00E000BF7B68012283F83D207B682D
:10447000002283F83C20002318461037BD4680BD3B
:1044800080B485B000AF786039607B681B68FB60E2
:104490007B68404A934213D07B68B3F1804F0FD0C2
:1044A0007B683D4A93420BD07B683C4A934207D0DD
:1044B0007B683B4A934203D07B683A4A934208D1D7
:1044C000FB6823F07003FB603B685B68FA6813438A
:1044D000FB607B682F4A93422BD07B68B3F1804FFF
:1044E00027D07B682C4A934223D07B682B4A934287
:1044F0001FD07B682A4A93421BD07B68294A93428B
:1045000017D07B68284A934213D07B68274A93428E
:104510000FD07B68264A93420BD07B68254A934292
:1045200007D07B68244A934203D07B68234A934296
:1045300008D1FB6823F44073FB603B68DB68FA68D2
:104540001343FB60FB6823F080023B685B69134305
:10455000FB607B68FA681A603B689A687B68DA627D
:104560003B681A687B689A627B680A4A934203D068
:104570007B680C4A934203D13B681A697B681A63D3
:104580007B6801225A6100BF1437BD465DF8047B89
:10459000704700BF000001400004004000080040D8
:1045A000000C004000040140004001400044014074
:1045B0000048014000180040001C0040002000405E
:1045C00080B487B000AF786039607B681B6A23F0E5
:1045D00001027B681A627B681B6A7B617B685B688F
:1045E0003B617B689B69FB60FB6823F07003FB60A9
:1045F000FB6823F00303FB603B681B68FA68134306
:10460000FB607B6923F002037B613B689B687A69EE
:1046100013437B617B68204A934203D07B681F4A27
:1046200093420CD17B6923F008037B613B68DB6814
:104630007A6913437B617B6923F004037B617B68A8
:10464000154A934203D07B68144A934211D13B69C7
:1046500023F480733B613B6923F400733B613B6847
:104660005B693A6913433B613B689B693A69134351
:104670003B617B683A695A607B68FA689A613B687B
:104680005A687B685A637B687A691A6200BF1C3774
:10469000BD465DF8047B7047000001400004014006
:1046A00080B487B000AF786039607B681B6A23F004
:1046B00010027B681A627B681B6A7B617B685B689F
:1046C0003B617B689B69FB60FB6823F4E043FB6014
:1046D000FB6823F44073FB603B681B681B02FA68AD
:1046E0001343FB607B6923F020037B613B689B687D
:1046F0001B017A6913437B617B68224A934203D092
:104700007B68214A93420DD17B6923F080037B6152
:104710003B68DB681B017A6913437B617B6923F08B
:1047200040037B617B68174A934203D07B68164A3B
:10473000934213D13B6923F480633B613B6923F4CB
:1047400000633B613B685B699B003A6913433B61D3
:104750003B689B699B003A6913433B617B683A69FC
:104760005A607B68FA689A613B685A687B689A630A
:104770007B687A691A6200BF1C37BD465DF8047B0E
:10478000704700BF000001400004014080B487B0C2
:1047900000AF786039607B681B6A23F480727B68A5
:1047A0001A627B681B6A7B617B685B683B617B6824
:1047B000DB69FB60FB6823F07003FB60FB6823F0A0
:1047C0000303FB603B681B68FA681343FB607B696B
:1047D00023F400737B613B689B681B027A69134377
:1047E0007B617B68214A934203D07B68204A9342D5
:1047F0000DD17B6923F400637B613B68DB681B029E
:104800007A6913437B617B6923F480637B617B68F6
:10481000164A934203D07B68154A934213D13B69F1
:1048200023F480533B613B6923F400533B613B68B5
:104830005B691B013A6913433B613B689B691B0140
:104840003A6913433B617B683A695A607B68FA684E
:10485000DA613B685A687B68DA637B687A691A6256
:1048600000BF1C37BD465DF8047B70470000014067
:104870000004014080B487B000AF786039607B6885
:104880001B6A23F480527B681A627B681B6A3B6157
:104890007B685B687B617B68DB69FB60FB6823F49A
:1048A000E043FB60FB6823F44073FB603B681B68DC
:1048B0001B02FA681343FB603B6923F400533B611E
:1048C0003B689B681B033A6913433B617B68124A50
:1048D000934203D07B68114A934209D17B6923F448
:1048E00080437B613B685B699B017A6913437B6111
:1048F0007B687A695A607B68FA68DA613B685A6853
:104900007B681A647B683A691A6200BF1C37BD462F
:104910005DF8047B704700BF0000014000040140C7
:1049200080B487B000AFF860B9607A60FB681B6A3A
:104930007B61FB681B6A23F00102FB681A62FB685B
:104940009B693B613B6923F0F0033B617B681B0182
:104950003A6913433B617B6923F00A037B617A69FF
:10496000BB6813437B61FB683A699A61FB687A69AB
:104970001A6200BF1C37BD465DF8047B704780B4E7
:1049800087B000AFF860B9607A60FB681B6A23F0FB
:104990001002FB681A62FB689B697B61FB681B6AFB
:1049A0003B617B6923F470437B617B681B037A69FD
:1049B00013437B613B6923F0A0033B61BB681B0190
:1049C0003A6913433B61FB687A699A61FB683A690B
:1049D0001A6200BF1C37BD465DF8047B704780B487
:1049E00085B000AF786039607B689B68FB60FB68CE
:1049F00023F07003FB603A68FB68134343F007033E
:104A0000FB607B68FA689A6000BF1437BD465DF8AA
:104A1000047B704780B487B000AFF860B9607A60FB
:104A20003B60FB689B687B617B6923F47F437B6110
:104A30003B681A027B681A43BB6813437A691343C5
:104A40007B61FB687A699A6000BF1C37BD465DF8E0
:104A5000047B704780B487B000AFF860B9607A60BB
:104A6000BB6803F01F03012202FA03F37B61FB68BA
:104A70001A6A7B69DB431A40FB681A62FB681A6A90
:104A8000BB6803F01F03796801FA03F31A43FB685C
:104A90001A6200BF1C37BD465DF8047B70470000FA
:104AA00080B485B000AF786039607B6893F83C30A3
:104AB000012B01D102235AE07B68012283F83C20BC
:104AC0007B68022283F83D207B681B685B68FB6083
:104AD0007B681B689B68BB60FB6823F07003FB600E
:104AE0003B681B68FA681343FB607B681B68FA68C5
:104AF0005A607B681B68214A934222D07B681B68FE
:104B0000B3F1804F1DD07B681B681D4A934218D0BB
:104B10007B681B681B4A934213D07B681B681A4A48
:104B200093420ED07B681B68184A934209D07B6879
:104B30001B68174A934204D07B681B68154A93424E
:104B40000CD1BB6823F08003BB603B685B68BA682C
:104B50001343BB607B681B68BA689A607B6801225C
:104B600083F83D207B68002283F83C200023184610
:104B70001437BD465DF8047B704700BF000001405C
:104B80000004004000080040000C00400004014008
:104B9000004001400018004080B487B000AF78604A
:104BA000396000237B6100233B610023FB6000230D
:104BB0007B6132E000233B6127E03B699B007A6820
:104BC00013441A683B6901339B0079680B441B68E6
:104BD0009A4217DD3B699B007A6813441B68FB60AF
:104BE0003B6901339B007A681A443B699B007968F2
:104BF0000B4412681A603B6901339B007A681344C6
:104C0000FA681A603B6901333B613B68013B3A69D2
:104C10009A42D2DB7B6901337B617A693B689A42B5
:104C2000C8DB00BF00BF1C37BD465DF8047B704782
:104C300080B584B000AF786039604FF00003FB604E
:104C40003B6803F00103002B23D13B68013BDA0FE3
:104C500013445B109B007A6813441A683B68D90FB1
:104C60000B445B109B0079680B441B681344184687
:104C7000FBF758FC4FF000024FF08043FBF7E6FDD6
:104C800002460B4610461946FBF78EFF0346FB60B3
:104C90000DE03B68DA0F13445B109B007A68134405
:104CA0001B6807EE903AF8EEE77AC7ED037AFB68E7
:104CB00007EE903AB0EE670A1037BD4680BDB0B53A
:104CC00088B000AF0346FB806B461D460023FB61A6
:104CD0001923BB614FF000037B61BC69631E3B611C
:104CE000234618464FF000014FF000024FF000033A
:104CF0004B0143EAD0634201234618464FF00001BE
:104D00004FF000024FF000034B0143EAD063420131
:104D100023469B000733DB08DB00ADEB030D6B463E
:104D200003339B089B00FB600023FB6107E0F988CD
:104D3000FB68FA6943F82210FB690133FB61FA69E9
:104D4000BB699A42F3DBFB68B9691846FFF724FF99
:104D5000FB68B9691846FFF76BFF87ED050AD7EDC9
:104D6000057AFCEEE77A17EE903A9BB2AD4618460C
:104D70002037BD46B0BD000080B58EB00AAF00231D
:104D8000FB810023BB814FF00003BB60FCF7D8F828
:104D900000F09EF800F0AAFA00F058F900F0B6F919
:104DA00000F000F900F056FA00F0DEF94048FCF798
:104DB000F3FE0346002B01D000F05AFC02213C48D0
:104DC000FDF709F80346002B01D000F051FC394BE8
:104DD0001B881A46384B1A60374B00225A60364BF4
:104DE0000022DA60344B00229A60334B04221A61AD
:104DF000314B00221A7500213048FFF779F98023E2
:104E000008934023079320230693102305932C4BEC
:104E100004930823039304230293022301930123A1
:104E20000093274B10220821264801F013FA322064
:104E3000FCF7F8F800F0F2FA0346FB813220FCF7A9
:104E4000F1F800F02DFB87ED020A3220FCF7EAF8BA
:104E500000F0BEFBF0EE407AFCEEE77A17EE903AF7
:104E6000BB813220FCF7DEF8FB89DAB2164B1A70F0
:104E7000BB89DAB2144B5A70D7ED027AFCEEE77AAE
:104E8000C7ED017A3B79DAB20F4B9A703220FCF70A
:104E9000C9F80E4B0C4A08490548FCF7C1FE034609
:104EA000002B01D000F0E4FBC820FCF7BBF8BEE704
:104EB0008C03002006000020B40300204C030020D7
:104EC000000C024000040240380300204003002090
:104ED00080B594B000AF07F12003302200211846BE
:104EE00001F088FA07F10C0300221A605A609A60F8
:104EF000DA601A610023BB60284B1B6C274A43F021
:104F000080531364254B1B6C03F08053BB60BB685C
:104F100000237B60224B1B68214A43F480431360CB
:104F20001F4B1B6803F480437B607B6801233B625B
:104F30004FF480337B620223BB634FF48003FB6337
:104F400004233B64A8237B640223BB640723FB6424
:104F500007F120031846FEF713FC0346002B01D08F
:104F600000F086FB0F23FB6002233B6100237B6183
:104F70004FF4A053BB614FF48053FB6107F10C0366
:104F800005211846FEF76CFE0346002B01D000F009
:104F90006FFB00BF5037BD4680BD00BF00380240E8
:104FA0000070004080B584B000AF3B4600221A601C
:104FB0005A609A60DA60224B224A1A60204B4FF402
:104FC00080325A601E4B4FF080729A601C4B002258
:104FD0001A611B4B00221A76194B002283F82020FD
:104FE000174B0022DA62164B174A9A62144B0022C2
:104FF000DA60134B0122DA61114B002283F8302072
:105000000F4B01225A610E48FCF730F80346002B83
:1050100001D000F02DFB04233B6001237B600023C3
:10502000BB603B4619460648FCF7BCF90346002B1B
:1050300001D000F01DFB00BF1037BD4680BD00BF92
:10504000F0020020002001400100000F80B500AFF9
:105050002B4B2C4A1A602A4B0E225A60284B0022F6
:105060009A60274B0022DA60254B4FF480321A6198
:10507000234B4FF400125A61214B00221A76204B29
:1050800000225A761E4B00229A761D4B0022DA76B9
:105090001B4B00221A771A4B00225A771848FCF74C
:1050A0009FFB0346002B01D000F0E2FA164B0A22C8
:1050B0005A61154B00229A61134B0122DA61124B9F
:1050C00000221A60104B00225A600F4B00229A6097
:1050D0000D4B0022DA600C4B00221A610A4B0122B0
:1050E0001A62094B00225A6207490548FCF774FC12
:1050F0000346002B01D000F0BBFA00BF80BD00BF0B
:105100008C030020006400403402002080B500AF12
:10511000124B134A1A60114B124A5A600F4B00226D
:105120009A600E4B0022DA600C4B4FF480421A61F9
:105130000A4B00225A61094B00229A61074B002258
:10514000DA61064B00221A620448FDF783FB03462E
:10515000002B01D000F08CFA00BF80BD9C02002023
:1051600000540040A086010080B58EB000AF07F16A
:10517000280300221A605A609A60DA6007F120035F
:1051800000221A605A603B1D00221A605A609A6021
:10519000DA601A615A619A612D4B4FF080421A60B1
:1051A0002B4B00225A602A4B00229A60284B4FF06A
:1051B000FF32DA60264B00221A61254B00229A61E9
:1051C0002348FEF735FF0346002B01D000F050FACC
:1051D0004FF48053BB6207F1280319461C48FFF7C0
:1051E0008BF80346002B01D000F042FA1848FEF776
:1051F0004AFF0346002B01D000F03AFA00233B623D
:1052000000237B6207F1200319461148FFF748FC91
:105210000346002B01D000F02BFA60237B600023B3
:10522000BB600023FB6000237B613B1D002219460D
:105230000748FEF79BFF0346002B01D000F018FA49
:10524000034800F071FB00BF3837BD4680BD00BF8A
:105250004C03002080B586B000AF07F108030022A0
:105260001A605A609A60DA603B4600221A605A60FF
:105270001C4B1D4A1A601B4BA7225A60194B002277
:105280009A60184B0022DA60164B00221A61154B07
:1052900000229A611348FEF7CBFE0346002B01D093
:1052A00000F0E6F94FF48053BB6007F1080319469C
:1052B0000C48FFF721F80346002B01D000F0D8F985
:1052C00000233B6000237B603B4619460548FFF7FF
:1052D000E7FB0346002B01D000F0CAF900BF1837E6
:1052E000BD4680BD5C0200200008004080B58AB049
:1052F00000AF07F1140300221A605A609A60DA6066
:105300001A6100233B61414B1B6B404A43F0800311
:1053100013633E4B1B6B03F080033B613B6900232F
:10532000FB603A4B1B6B394A43F001031363374B65
:105330001B6B03F00103FB60FB680023BB60334B76
:105340001B6B324A43F002031363304B1B6B03F0B9
:105350000203BB60BB6800237B602C4B1B6B2B4A9A
:1053600043F008031363294B1B6B03F008037B60B6
:105370007B6800224FF480712548FDF751FA002226
:10538000FF212448FDF74CFA002218212248FDF79E
:1053900047FA40F201237B610023BB610023FB61DC
:1053A00007F1140319461A48FDF786F84FF4807385
:1053B0007B610123BB610023FB6100233B6207F19A
:1053C000140319461248FDF777F8FF237B61012388
:1053D000BB610023FB6100233B6207F11403194604
:1053E0000C48FDF769F818237B610123BB6100239A
:1053F000FB6100233B6207F1140319460648FDF7E1
:105400005BF800BF2837BD4680BD00BF00380240B2
:1054100000000240000C02400004024080B584B04D
:1054200002AF0023BB8090213A1D4FF47A730093A2
:1054300001231948FDF752FB03461A46174B1A7011
:10544000164B1B78002B02D000F012F91DE09021C2
:105450003A1D4FF47A73009301230F48FDF73CFC8B
:1054600003461A460D4B1A700C4B1B78002B02D0CA
:1054700000F0FEF802E0BB889BB27B807B889BB289
:10548000184600F022FC03463B803B889BB218463E
:105490000837BD4680BD00BF9C020020E803002005
:1054A00080B584B000AF2D4BBB600023FB600023B0
:1054B000FB8000224FF480712948FDF7B1F90320E9
:1054C00000F052F801224FF480712548FDF7A8F949
:1054D0000A2000F049F800224FF480712048FDF7BF
:1054E0009FF900BF4FF400711D48FDF781F9034695
:1054F000002BF7D00023FB6002E0FB680133FB6068
:105500004FF400711648FDF773F90346012BF4D0F0
:10551000FB6807EE903AF8EE677A9FED127A37EE65
:10552000877AD7ED027A67EE277AFCEEE77A17EEF4
:10553000903AFB80FB88184600F0B6FC034607EE65
:10554000903AF8EE677AC7ED007A3B6807EE903A3A
:10555000B0EE670A1037BD4680BD00BF287E8C3C88
:10556000000002400000000080B483B000AF78600B
:105570007B68012B01D802237B60134A7B68013BC7
:10558000D362114B01225A610F4B1B690E4A23F063
:10559000010313610C4B1B680B4A43F001031360BA
:1055A00000BF094B1B6903F00103012BF9D1064B26
:1055B0001B69054A23F00103136100BF0C37BD4688
:1055C0005DF8047B704700BF000800400000000049
:1055D00080B582B000AF2448FBF78CFD0121224842
:1055E000FBF74EFE2048FBF7CFFE0346FB80012071
:1055F000FBF718FDFB881846FFF761FB0346BB80ED
:10560000BB8807EE903AF8EE677A9FED187AC7EEFE
:10561000876A16EE900AFAF797FF0FA3D3E90023E3
:10562000FAF734FE02460B46104619460CA3D3E99E
:105630000023FBF70BF902460B4610461946FBF711
:10564000B3FA03463B603B6807EE903AB0EE670A58
:105650000837BD4680BD00BF52B81E85EB51B83F2C
:105660003BDF4F8D976E823FF002002000C07F44E9
:1056700080B400AF72B600BFFEE7000080B582B014
:1056800000AF00237B60104B5B6C0F4A43F48043F8
:1056900053640D4B5B6C03F480437B607B68002399
:1056A0003B60094B1B6C084A43F080531364064B64
:1056B0001B6C03F080533B603B680720FCF7BAFE8D
:1056C00000BF0837BD4680BD0038024080B58AB0B3
:1056D00000AF786007F1140300221A605A609A60E4
:1056E000DA601A617B681B68244A934241D1002327
:1056F0003B61234B5B6C224A43F480735364204B21
:105700005B6C03F480733B613B690023FB601C4BC3
:105710001B6B1B4A43F001031363194B1B6B03F014
:105720000103FB60FB680023BB60154B1B6B144A35
:1057300043F002031363124B1B6B03F00203BB60C5
:10574000BB6810237B610323BB610023FB6107F16E
:10575000140319460B48FCF7AFFE01237B610323BA
:10576000BB610023FB6107F1140319460648FCF7EF
:10577000A3FE00BF2837BD4680BD00BF002001400A
:1057800000380240000002400004024080B58AB0A8
:1057900000AF786007F1140300221A605A609A6023
:1057A000DA601A617B681B681D4A934234D100237A
:1057B0003B611C4B1B6C1B4A43F000731364194B79
:1057C0001B6C03F000733B613B690023FB60154BCE
:1057D0001B6B144A43F002031363124B1B6B03F061
:1057E0000203FB60FB684FF440737B610223BB61E3
:1057F0000023FB6103233B6209237B6207F114034F
:1058000019460948FCF758FE002200211420FCF735
:105810001CFE1420FCF735FE00BF2837BD4680BDB6
:1058200000640040003802400004024080B58AB0A5
:1058300000AF786007F1140300221A605A609A6082
:10584000DA601A617B681B68194A93422BD10023E6
:105850003B61184B1B6B174A43F002031363154B54
:105860001B6B03F002033B613B69C0237B61122386
:10587000BB610123FB6103233B6204237B6207F1CD
:10588000140319460C48FCF717FE0023FB60094B74
:105890001B6C084A43F400131364064B1B6C03F49F
:1058A0000013FB60FB6800BF2837BD4680BD00BF0A
:1058B00000540040003802400004024080B485B02B
:1058C00000AF78607B681B68B3F1804F0ED1002376
:1058D000FB60134B1B6C124A43F001031364104B23
:1058E0001B6C03F00103FB60FB6812E07B681B6824
:1058F0000C4A93420DD10023BB60094B1B6C084A34
:1059000043F004031364064B1B6C03F00403BB60F9
:10591000BB6800BF1437BD465DF8047B704700BF0D
:10592000003802400008004080B588B000AF7860C1
:1059300007F10C0300221A605A609A60DA601A615B
:105940007B681B68B3F1804F1DD10023BB60104BF7
:105950001B6B0F4A43F0010313630D4B1B6B03F0EA
:105960000103BB60BB682023FB6002233B61002373
:105970007B610023BB610123FB6107F10C03194626
:105980000448FCF799FD00BF2037BD4680BD00BF2D
:10599000003802400000024080B400AFFEE780B44F
:1059A00000AFFEE780B400AFFEE780B400AFFEE7D3
:1059B00080B400AFFEE780B400AF00BFBD465DF825
:1059C000047B704780B400AF00BFBD465DF8047B28
:1059D000704780B400AF00BFBD465DF8047B7047E0
:1059E00080B500AFFBF7FEFA00BF80BD80B500AF09
:1059F0000248FCF716FA00BF80BD00BF8C030020F0
:105A000080B400AF01231846BD465DF8047B7047A3
:105A100080B582B000AF7860396000F0C1FC034609
:105A200016221A604FF0FF3318460837BD4680BD76
:105A300080B582B000AF78604FF0FF317868FFF733
:105A4000E7FFFEE780B586B000AFF860B9607A6026
:105A500000237B610AE0AFF300800146BB685A1C5B
:105A6000BA60CAB21A707B6901337B617A697B685C
:105A70009A42F0DB7B6818461837BD4680BD80B57A
:105A800086B000AFF860B9607A6000237B6109E0FE
:105A9000BB685A1CBA601B781846AFF300807B695C
:105AA00001337B617A697B689A42F1DB7B68184637
:105AB0001837BD4680BD000080B584B000AF786067
:105AC000114B1B68002B02D10F4B104A1A600E4B72
:105AD0001B68FB600C4B1A687B6813446A46934250
